:1000000000000120918300083531000839310008D3
:100010003D31000841310008453100080000000072
:100020000000000000000000000000004D3100084A
:10003000493100080000000051310008F532000885
:1000400055310008593100085D3100086131000860
:1000500065310008693100086D3100087131000810
:1000600075310008793100087D310008000000007A
:100070000000000000000000000000000000000080
:100080000000000000000000553200089D3100080B
:10009000A1310008A5310008A9310008AD310008E0
:1000A000B1310008B5310008B9310008BD31000890
:1000B00061320008C1310008C5310008C9310008AB
:1000C000CD310008D1310008D5310008D931000800
:1000D000DD31000849320008E13100083D320008F6
:1000E000E5310008E9310008ED310008F131000880
:1000F000F5310008F9310008FD310008013200082F
:1001000005320008093200080D32000811320008DB
:100110001532000831320008193200081D3200087B
:100120002132000825320008293200082D3200084B
:100130005FF800007047C046FEE7C046FEE7C046D5
:10014000FEE7C046FEE7C0467047C0467047C0465F
:100150007047C0467047C0467047C0467047C046AB
:100160007047C0467047C0467047C0467047C0469B
:100170007047C0467047C0467047C0467047C0468B
:100180007047C0467047C0467047C0467047C0467B
:100190007047C0467047C0467047C0467047C0466B
:1001A0007047C0467047C0467047C0467047C0465B
:1001B0007047C0467047C0467047C0467047C0464B
:1001C0007047C0467047C0467047C0467047C0463B
:1001D0007047C0467047C0467047C0467047C0462B
:1001E0007047C0467047C0467047C0467047C0461B
:1001F0007047C0467047C0467047C0467047C0460B
:100200007047C0467047C0467047C0467047C046FA
:100210007047C0467047C0467047C0467047C046EA
:100220007047C0467047C0467047C0467047C046DA
:1002300000B581B000F0B6F901B000BD00B581B0E5
:1002400000F0AAF901B000BD00B581B000F0B0F92E
:1002500001B000BD00B581B000F0B2F801B000BD42
:1002600000B54FF0804081B0102104F003FE00285B
:1002700038D010214FF0804004F008FE00F0A0F8C4
:100280004FF0804004F0DEFD174B18601968174BE3
:100290004FF080401B88C91889B204F087FD144BC9
:1002A0001B8813F0030F01D100F096F8104B1B8848
:1002B00013F0070F01D100F077F80D4B1B8813F0F6
:1002C0001F0F03D100F07AF901F0DCFF084B1B8807
:1002D00013F0FF0F01D100F077F9054A13880133BD
:1002E0009BB2138001B000BDF40200202E0100205B
:1002F000FA02002000B581B001F0AAFC01B000BDF7
:1003000000B581B001F048FC002001F0B9FC0120EB
:1003100000F0ACF9002001F055FD022001F052FD83
:10032000012001F04FFD02F06FF81C481C4900222B
:10033000835C8B540132182AFAD11A4B08221A70A6
:100340000121072001F0A4F8322001F0B3FC0021C4
:10035000072001F09DF8322001F0ACFC01210720BC
:1003600001F096F8322001F0A5FC0021072001F0F1
:100370008FF8322001F09EFC0121072001F088F85F
:10038000322001F097FC0720002101F081F8322093
:1003900001F090FC00F030FCFEE7C0460E010020AA
:1003A000230900207E090020024A13780133DBB2C2
:1003B00013707047220900207047C0467047C0463E
:1003C00000B581B001F0C4FC01B000BD00B581B042
:1003D00001F03EFC01B000BD10B5634B82B00024BB
:1003E0008DF807401A784FF400510132D2B21A70DA
:1003F0001A785E4802F01F021A7003F025F80128EF
:100400000CBF8DF807008DF807409DF80730DFF826
:1004100060C119465748002B40D18CF80030564B2C
:100420001F221A70554B19700378DBB1544A138898
:10043000013B9BB21380138899B299B90378013BB1
:10044000DBB2037040F2124313804E4A13780BB1B3
:10045000117001E001231370464B1B781A460BB94B
:10046000484B1A70474B1B784BB98021464802F025
:10047000FFFF45484FF4807102F0FAFF08E0424860
:10048000802102F0F5FF40484FF4807102F0F2FF46
:100490003D484FF4007102F0EBFF30E00A23037097
:1004A000374B40F212421A802F4B1A789CF80030DA
:1004B0009A4204D33448802102F0DAFF03E0324844
:1004C000802102F0D7FF284B1A782B4B1B789A42D9
:1004D00005D32D484FF4807102F0CAFF04E02A488A
:1004E0004FF4807102F0C6FF1F4B1A78234B1B7824
:1004F0009A42CDD224484FF4007102F0BBFF1A4B50
:100500001A78224B1B789A4205D318484FF4807111
:1005100002F0AEFF04E015484FF4807102F0AAFF2C
:10052000114B1A781A4B1B789A4205D30F484FF497
:10053000006102F09DFF04E00C484FF4006102F0FE
:1005400099FF094B1A78134B1B789A4205D3074839
:100550004FF4805102F08CFF04E004484FF48051C6
:1005600002F088FF02B010BD85090020000801409C
:100570007F090020FC020020800900208109002062
:10058000FE0200200003002000100140820900202C
:10059000830900208409002000B581B001F0ECFC43
:1005A00001B000BD00B581B001F042FC01B000BD5A
:1005B00000B581B001F05AFC01B000BD00B581B0BA
:1005C00002F070F801B000BD70B51F4C1F4E2378CB
:1005D0000133DBB22370356801F044FB4019306011
:1005E0002378782B12D132681949A2FB01239B0989
:1005F00033603368174A6E2B01D8012300E00023D3
:100600001370124A002313600F4A13700E4B104AE6
:100610001978A1FB02231B09C3EB0313A1EB4301D0
:1006200011F0FF0F0ED10B4B1B78012B0AD101F0FB
:1006300095FD38B9FF2001F079FD162001F082FD0B
:1006400001F09CFD70BDC04608030020040300209B
:100650008988888809030020024B00221A70024B07
:1006600018887047160300201403002000B50128E5
:1006700081B00AD100F1804000F5843000F57F7030
:100680000330082102F0F6FE03E00348082102F0DF
:10069000EFFE01B000BDC046000C014030B5264B56
:1006A0004FF0000281B01A8002241D4631E0002084
:1006B000FFF7DCFF022001F0FDFA012001F082FBD0
:1006C0000120FFF7D3FF0A2001F0F4FA01202121D5
:1006D00001F0E0FC0120212101F0DCFC40F23110AE
:1006E00001F0E8FA0DE0012001F07CFB0028FAD0CF
:1006F000012001F087FB212803D14FF001032B805B
:1007000004E0012001F06EFB0028ECD1631EDCB296
:1007100014B12B88002BCAD0322001F0CBFA002074
:10072000FFF7A4FF022001F0C5FA0120FFF79EFFAA
:10073000014B188801B030BD1803002010B5394BAB
:100740001B78012B01D101206BE0374C2378052B5E
:100750000BD83648C3F10601C01800F0B1F8B0F16B
:10076000FF3F1EBF2378C31823702F4B1C78012C2A
:1007700030D90021DFF8B4C0601E0DE01CF8013054
:100780000CEB0102FF2B06D1884204DD5378552B78
:1007900001D1F9B102E00131A142EFDBA14204D164
:1007A000224B4A1E9B5CFF2B00D00A461F4B114672
:1007B00003EB020C184604E01CF8013C013100F880
:1007C000013C0130A1420CF1010CF5DB164BC2EBF0
:1007D00004021A70144B1B78062B20D1134A13788D
:1007E000FF2B17D15378552B14D1D37890786FEA1B
:1007F0000303DBB298420DD1537911796FEA0303F9
:10080000DBB2994206D10A4B00EB01221A80054B5C
:1008100001221A70054A00231370034A1370014B1A
:10082000187810BD16030020120300200C030020CE
:100830001403002000B580B283B0C2B2000A8DF864
:1008400006004FF0FF336FEA00008DF802308DF89C
:10085000042055236FEA02028DF8070006210DF1EE
:1008600002008DF803308DF8052000F043F80628CB
:1008700014BF0020012003B000BDC04600B581B008
:1008800000F01CF801B000BD00B54FF4614181B02B
:1008900000F03EF848B1064B00221A70054B4FF0AD
:1008A00000011980044B01201A7001B000BDC04640
:1008B0001603002014030020120300207047C046D6
:1008C00070B5064601200D4601F08CFA10B94FF0C4
:1008D000FF340CE00024012001F084FA0028FAD053
:1008E000012001F08FFA30550134AC42F3DB204691
:1008F00070BDC04670B506460D46002404E0315D6B
:10090000012001F0C7FB0134AC42F8DB002070BDD0
:1009100000B5012081B04FF4614100F0F7FF0120E4
:1009200001B000BD70B5154B154A1978535C13B36F
:10093000144B1C7802EB04035B1813F8023C022BE7
:1009400019D00120104E114D10E05A2913D8325CF5
:1009500015F811308C4693420DD84B1CD9B205EBDB
:100960004C03325C5B780130934204D3C3B2A342A0
:10097000EBD3002000E0082070BDC046890A0020AB
:10098000B400002087090020890900200000002011
:10099000F0B5002581B03A4E3A4F69E03A4A1378F3
:1009A0002B441C2B34D006DC192B12D01A2B1DD053
:1009B000182B5BD106E0522B4DD0532B52D0512B2C
:1009C00054D135E0314C207E01F05AF9227E304B73
:1009D0002CE02E4C0121607E00F05AFD607E00214B
:1009E0006FEA0000C0B200F053FD3FE029492A4AF7
:1009F0000B7803F01F0313700988284A4B0903F092
:100A00001F031370890A264B01F01F0119702DE096
:100A10003378244A03F01F0313703288530903F01C
:100A20001F033B70920A204B02F01F021A701DE058
:100A3000164C94F8520001F079FB01F08FFB18B1CD
:100A400094F85230FE2B11D194F8510001F07AFB4A
:100A500001F094FB0AE00D4B93F8523033B901F0EA
:100A6000D3FC03E0114B1888FFF7E4FE6B1CDDB2EA
:100A70000F4A1378013B9D4290DB01B0F0BDC046A8
:100A80003F09002083090020890A00202309002053
:100A90008D0B00203D0900207F09002080090020E7
:100AA00081090020820900208409002076090020A5
:100AB0008709002030B52C4B81B01B78012B07D063
:100AC0002A4B1B78FE2B4CD0294B1B7C012B48D981
:100AD000284B294993F800C0254C284D40EA0C0CBE
:100AE000E0780B784FF0FF32EA540133DBB20B7041
:100AF0000B780230EA540133DBB20B700A78E378EA
:100B00006044AB540132D2B20A700B780222EA542C
:100B10000133DBB20B700B786FEA000005F803C0FD
:100B20000133DBB20B700B78C0B2E8540133DBB297
:100B3000134A0B70137883B901231370114A1248BA
:100B40001378E95C0133DBB2137004F0B1FA0E489C
:100B500040F22661012204F03FFA094A1378002B83
:100B6000FCD101B030BDC0468809002086090020B4
:100B7000230900208A0A00201E0900201D080020E9
:100B8000210900201F09002000480040F0B5012481
:100B900081B0144F144E154D1EE0154A1378013BD9
:100BA0002344D8B23B5C022B0BD12B5B172833526A
:100BB00004D801308000194602F01EF9631CDCB233
:100BC00008E02B5D1728335404D801308000295BDE
:100BD00002F012F9631CDCB2064A1378A342DCD897
:100BE00001B0F0BDB40000202309002089090020D5
:100BF000890A002087090020F0B5DFF8BC466FF0B5
:100C00003703E3704FF4F842DFF8B036A2834FF4B5
:100C10007871002261831A70DFF8A4361F211970E1
:100C2000DFF8A03685B01A70DFF89C361A70DFF84E
:100C30009C361A70DFF898361970FFF72FFDA4F86C
:100C400058000021DFF88C2600231370DFF8884657
:100C5000DFF888E6944603E09CF80030642BF0D877
:100C600022789EF80030DFF870069A42F4D00378BC
:100C7000DFF86C26D25C01339646DFF86826DBB2DB
:100C8000BEF1FF0F82F800E0037002D14B1CD9B215
:100C9000D8E70129D5D9DFF82036DB789E4502D088
:100CA000BEF1FE0FCDD1DFF82C2600231370DFF844
:100CB0002856DFF82846944603E09CF80030642B61
:100CC000BFD82A782378DFF810069A42DFF8041696
:100CD000F3D00378DFF808260446D25C0133DBB298
:100CE0000370931EDEB2DFF8003617461E70002335
:100CF0000B70DFF8E80502E00B78642BA1D82278AE
:100D00000378DFF8D4C59A42F6D09CF80030DFF8BB
:100D1000D0250020D15C0133DBB2DFF8D0258CF880
:100D2000003007EB0E031170C918CDB2DFF8A445EF
:100D3000E6461DE00023237002E02378642B80D870
:100D4000DFF898159EF800200B789A42F5D09CF8B1
:100D50000020DFF88C35DFF898159B5C01320B54CE
:100D60000B5CD2B25B19DDB2431C8CF80020D8B208
:100D70008642DFDADFF8783500241A78DFF8743538
:100D8000DFF834651A7004E0022000F04BFF631CAA
:100D9000DCB273799C42F7D3FF2DDFF850150BD0EE
:100DA000DFF83435DFF834251B7813700B78012B0E
:100DB0003FF447AF10207CE20B78922B40F0BD80CF
:100DC000DFF83425002313701378DFF83025022470
:100DD00013704FF0FF0C0026ABE0DFF81405DFF8CE
:100DE000D814025DCB789A4240F09E80CA78DFF832
:100DF000F4341A70DFF8F43402221A70631CC25CF7
:100E0000DFF8F0341A70631EC35CBCF1FF0F43704F
:100E100001D1042791E0DFF8E0E40021DFF8B444D9
:100E2000704600E000214FF00003237003E02378B8
:100E3000642B3FF606AFDFF8C4341A789EF8003012
:100E40009A42F4D00378DFF8B824D25C0133DBB2E5
:100E5000FF2A037002D14B1CD9B2E4E70129E1D982
:100E60006245DFD1DFF86C34DFF88CE41E709C46FD
:100E700004E09CF80030642B3FF6E3AEDFF87C140E
:100E8000DFF874040A789EF80030DFF848149A42BC
:100E9000EFD00378DFF868248446D25C0133DBB2FC
:100EA000023A0370D4B20E7003E00B78642B3FF665
:100EB000C8AEDFF84834DFF840041A789CF80030F8
:100EC0009A42F2D00378DFF838240021D25C013353
:100ED000DBB20370DFF8FCE3844617E08EF80060B5
:100EE00004E09EF80030642B3FF6ABAEDFF80C3424
:100EF0001A789CF800309A42F3D00378DFF8002487
:100F0000D25C0133DBB203704B1CD9B28C42E5DA00
:100F10000024E94D04E0022000F084FE631CDCB2F2
:100F20006B799C42F7D30427F14B1B5D9C46E31C75
:100F3000DCB2FB1E9C42FFF650AFEC4B1B787D33BE
:100F4000DBB2012B2BD8EA4A02215378A7F1030E1A
:100F500018461546D84C03F1010C1EE06A5CE37894
:100F60009A4217D10122DFF888C305E01CF803304C
:100F70000CF80230531CDAB202EB01038242DBB2FE
:100F8000F4D9DA4A137803F07F031370D64B421C6E
:100F90001A7004E001EB0C03D9B27145DEDBD34BD0
:100FA0001B78032B0CD1FFF7BDFC0446FFF782FD35
:100FB000082C3FF446AEFFF7E9FDFFF7E9FC40E6F9
:100FC000022B40F03C81C74B1B78FE2B3FF439AE1F
:100FD000B94E337C002B3FF434AEC549C54A4B783B
:100FE000127800249B18013BDBB201934B7800255B
:100FF0000233DBB20393F3780093C24B1F7800F007
:1010000031FE86F832003336631CDCB2204600F035
:1010100097FE800826F8150001350F2CF4D10099B1
:10102000039A07EB01031344DBB2029301F0F2FAD7
:10103000B54CB64E208001F0F3FA24F8020C01F012
:10104000F5FA24F8040C01F0F7FA608001F0FAFADE
:10105000A08001F0FDFAE080AD484FF0FF35037845
:101060002A3CF5540133DBB2037003780399F5543D
:101070000133DBB203700278E378DFF898C2B3542F
:101080000132D2B2027003789E4AF1540133DBB2CE
:101090000370037892F800E09F4906F803E00133FB
:1010A000DBB203700B7807460CF803500133DBB258
:1010B0000B700B780CF803500133DBB20B700A781D
:1010C000E3780CF802300132D2B20A700B78039A3E
:1010D0000CF803200133DBB20B700B780CF803E043
:1010E0000133DBB20B70834B1D7857E01E2D03D10B
:1010F00000F024F9A0770DE0572D05D1FFF71EFB76
:10110000C0B284F8570005E0552D03D1FFF7A4FACB
:10111000824B1880824980484A5D0199DFF8F4C10A
:101120008D422CBF00230123022A14BF002303F0A9
:1011300001030BB3615B3B78CAB2F2540133DBB2FB
:101140003B700378090A0CF803200133DBB203700B
:101150003B78F1540133DBB23B7003780CF8031099
:101160000133DBB20370029BD218D2B25218D2B252
:101170006B1C0292DDB20FE0635D3A780299B354C2
:101180000132D2B23A7002780CF8023001325B18A8
:10119000D2B2DBB2027002936B1CDDB2019A9542AF
:1011A000A4D95B4A029BDFF864C16FEA030113789C
:1011B000C9B20CF803100133DBB25748137003783F
:1011C000544AD1540133DBB2564A037013788BB9B9
:1011D00001231370544A554813781CF80310013347
:1011E000DBB2137003F064FF504840F22661012225
:1011F00003F0F2FE4E48102102F030F9D0B900F1B0
:10120000804000F58630202102F034F94848102152
:1012100002F02EF947483F4A0378D15C0133DBB234
:101220000370454803F044FF434840F22661012221
:1012300003F0D2FE3B4A1378002BFCD101E50D2BC5
:1012400020D12B4A9378F02B7FF4FBACD378552B2D
:101250007FF4F7AC13790F2B7FF4F3AC5379AA2BFF
:101260007FF4EFAC204B1B78062B7FF4EAAC214BCC
:10127000187859283FF6E5AC01305178800001F02C
:10128000BBFDDEE4012B09D1164B1B78FE2B03D1ED
:10129000094BD87800F00EFD00200AE0062B01D0A3
:1012A000072B05D10020FFF705FC02F08FFAC8E4F8
:1012B0004020FFF7FFFBC4E4230900207F09002042
:1012C0008009002081090020820900208309002074
:1012D000840900202209002019050020180500209B
:1012E0001A030020860900208709002088090020B1
:1012F00089090020890A00201B0700201A07002006
:101300001C0500208A0A00204D0900201D0800202D
:101310001E0900201B0600201C0700207809002061
:10132000B4000020210900201F09002000480040CF
:10133000000C01401D0700200038014010B54FF49B
:101340008041094802F080F84FF40041441E18BF64
:101350000124054802F078F801281CBF44F002037C
:10136000DCB2204610BDC0460008014070B50B4CF1
:101370008021204602F072F84FF480710646204624
:1013800002F06CF84FF400710546204602F066F852
:10139000800040EA45003043C0B270BD00100140FB
:1013A00000B5012881B009D100F1804000F58630F8
:1013B00000F57F7003304FF4004132E0022809D17C
:1013C00000F1804000F5843000F57F7002304FF46A
:1013D000805126E0042807D100F1804000F58630D6
:1013E00000F57F7040211CE0082808D100F1804002
:1013F00000F5863000F57E704FF4005111E01028A2
:1014000008D100F1804000F5863000F57C704FF483
:10141000804106E0402801D0002007E004484FF456
:10142000807102F01BF8013818BF012001B000BD27
:101430000008014010F0010F10B5044604D0134815
:10144000802102F017F803E01048802102F010F824
:1014500014F0020F05D00D484FF4807102F00AF825
:1014600004E00A484FF4807102F002F814F0040F0F
:1014700005D006484FF4007101F0FCFF04E003487A
:101480004FF4007101F0F4FF10BDC04600100140A0
:10149000012910B500F0010304462DD123B12D48D8
:1014A0004FF4004101F0E6FF14F0020F04D02A4887
:1014B0004FF4805101F0DEFF14F0040F03D02548F3
:1014C000402101F0D7FF14F0080F04D021484FF459
:1014D000005101F0CFFF14F0100F04D01D484FF45D
:1014E000804101F0C7FF14F0400F32D01B484FF489
:1014F000807101F0BFFF2CE023B116484FF400418A
:1015000001F0B6FF14F0020F04D013484FF48051DD
:1015100001F0AEFF14F0040F03D00E48402101F09B
:10152000A7FF14F0080F04D00A484FF4005101F04F
:101530009FFF14F0100F04D006484FF4804101F0D3
:1015400097FF14F0400F04D004484FF4807101F06D
:101550008FFF10BD00100140000C01400008014049
:1015600008B9064B08E0012808BF054B04D0022843
:1015700001D0002001E0034B1868704730010020C3
:10158000340100203801002070B54FF4405182B082
:101590004FF0006002F010F901AD4FF4C06002F0AE
:1015A0006DF801240026252328468DF804308DF897
:1015B00005608DF806408DF8074002F069F8352384
:1015C0008DF80430284602238DF806308DF805602A
:1015D0008DF8074002F05CF827238DF80430284688
:1015E00003238DF806308DF805608DF8074002F072
:1015F0004FF81C2328468DF804308DF805408DF8EF
:1016000006608DF8074002F043F802B070BDC04696
:10161000F0B583B001AC5F4D204601F00DFF4FF4F3
:10162000C8530326ADF8043028464FF01003214676
:101630008DF807308DF8066001F0AAFE4FF40053D4
:10164000ADF804302846282321468DF8073001F0F4
:101650009FFE4FF48063ADF8043028464FF004033A
:1016600021468DF8073001F093FE4FF0FF03ADF8EF
:10167000043028464FF00003214618278DF8073024
:1016800001F086FE4FF4007328462146ADF8043081
:101690008DF806608DF8077001F07AFE4CF20003B9
:1016A000ADF8043028464823214605F580658DF8BD
:1016B000073001F06DFE41F23C13ADF804302846CE
:1016C0004FF0100321468DF807308DF8066001F0C9
:1016D0005FFE4FF40863ADF8043028464FF0040372
:1016E00021468DF8073001F053FE4EF24063284644
:1016F0002146ADF804308DF806608DF8077001F0D2
:1017000047FE4FF00303ADF8043028464FF00003C6
:10171000214605F580658DF8073001F039FE4EF65B
:10172000C073ADF8043028464FF0100321468DF801
:1017300007308DF8066001F02BFE4FF480532846E9
:101740002146ADF804308DF806608DF8077001F081
:101750001FFE4FF03F03ADF8043028464FF0000362
:1017600021468DF8073001F013FE4FF004032146A7
:101770000948ADF804308DF8073001F009FE042067
:10178000012101F09FFE0548012101F09BFE03B0FD
:10179000F0BDC046000801400014014000043000C4
:1017A00010B51E4C86B020464FF4006101F060FE7B
:1017B00020464FF4806101F05BFE4FF00003ADF86E
:1017C00006304FF48273ADF808304FF00003ADF8E7
:1017D0000A304FF00203ADF80C304FF00103ADF8C2
:1017E0000E304FF40073ADF810304FF00803ADF831
:1017F0001230A4F558444FF00003ADF814302046E1
:101800004FF007030DF10601ADF8163002F008FBAA
:101810002046012102F042FB06B010BD001001403D
:1018200010B586B001AC204601F016F90121002266
:101830004FF460238DF809108DF8141031482146BB
:1018400001928DF808200393049201F0E1F82E48EC
:10185000214601F0DDF807232A480A21012201F080
:101860005FF928484FF40871002201F013F90723AB
:1018700025480421012201F053F9002222484FF4A7
:10188000087101F007F91F48012101F0EFF81E4827
:10189000012101F0EBF81B4801F008F9194801F0AB
:1018A0000BF90028FAD100F1804000F5943001F0E6
:1018B000FDF8154801F000F90028FAD100F1804048
:1018C00000F5923001F0FEF80E4801F001F9002811
:1018D000FAD100F1804000F5943001F0F3F80A48A5
:1018E00001F0F6F80028FAD100F18040012100F55E
:1018F000923001F0F3F80448012101F0EFF806B04E
:1019000010BDC046002401400028014070B584B0DD
:10191000044668460D4603F025FB4FF00003ADF882
:101920000430ADF80630ADF80830ADF80C304FF0AB
:101930000C036E460095ADF80A3084B91D4B1E4865
:101940001D6003F0A3FC1C48694603F051FC1A48D3
:1019500040F22551012203F03FFB174824E0012CFF
:1019600010D1164B16481D6003F090FC14486946D0
:1019700003F03EFC124840F22551012203F02CFBFB
:101980000F4811E0022C12D10E4B0F481D6003F0DE
:101990007DFC0D48694603F02BFC0B4840F22551B5
:1019A000012203F019FB0848012103F007FB04B0F2
:1019B00070BDC046300100200038014034010020D5
:1019C00000500040380100200048004000B581B0C0
:1019D00002F054F84FF4803002F070F802F088F80A
:1019E000012824D1102001F057FA022001F03CFA1E
:1019F000002002F0C7F8002002F0D8F84FF4806011
:101A000002F0CAF84FF480304FF4E01102F098F879
:101A1000012002F09FF8392002F0C8F90028FAD01E
:101A2000022002F09DF802F0A5F80828FBD1012160
:101A300046F63D6002F070F90448012102F07AF99F
:101A4000012001F0ABFF01B000BDC0460F401418EB
:101A500000B542F2283081B002F07CFB012002F098
:101A600095FB01B000BDC04670B588B00DF11605FC
:101A700028460DF106064FF0804402F0A7FE3046DE
:101A800002F0B0FE204603F007FA4FF0FF33ADF846
:101A90001A3020464FF000032946ADF81630ADF855
:101AA0001C30ADF8183002F099FB0122204640F2BC
:101AB000D22102F085FF4FF00003ADF80630ADF8FB
:101AC0000830ADF80E300B4B20461B883146ADF880
:101AD0000C3002F0BBFC2046002103F01FF820462A
:101AE0001021012202F0BCFE2046012102F09CFEE2
:101AF00008B070BD2E01002070B588B00DF116053C
:101B0000244C28460DF1060602F060FE304602F035
:101B100069FE204603F0C0F94FF04703ADF81630D8
:101B20004FF00003ADF818304FF4FA63ADF81A30F7
:101B30004FF00003ADF81C302046002329468DF8F5
:101B40001E3002F04BFB4FF06003ADF806304FF053
:101B50000103ADF808304FF00003ADF80A30BDF8CE
:101B60001A3020465B08ADF80C3031464FF00203C6
:101B7000ADF80E3002F06AFC2046002102F0CEFFE4
:101B80002046012102F050FE2046012102F05AFEBB
:101B900008B070BD0008004010B503F0E6FBFFF789
:101BA00015FFFFF7F1FCFFF733FD01F081F9194B49
:101BB00000201968FFF7AAFE0020FEF765FE164B0D
:101BC000164C19680220FFF7A1FEFFF729FEFFF768
:101BD0003FFFFFF749FFFFF7E3FDFFF78DFF2046CB
:101BE000102101F047FC2046202104F5806401F01B
:101BF0003FFC20464FF4806101F03AFC4FF4006155
:101C0000204601F035FC03F0B2FB00F069FE00F065
:101C1000CFFD10BD3001002038010020000C014034
:101C20007047C046084B0022196805E00023C91818
:101C300001330A2BFBD101328242F7D3024B1960E8
:101C4000024B19607047C046900B0020940B002097
:101C5000034A136813B11368013B13607047C04611
:101C6000980B002000B5002081B000F069F8034B0C
:101C7000000980B2185C01B000BDC0463C010020E4
:101C800000B5012881B00BD100F1804000F584300F
:101C900000F57F7003304FF4807101F0E9FB04E040
:101CA00003484FF4807101F0E5FB01B000BDC04670
:101CB000000C014010B50446012002F051FA074B18
:101CC0001C601A461368002BFCD16FF0010002F073
:101CD00047FA002002F044FA10BDC046980B0020DD
:101CE0007B2010B502F062F8012801D1022422E025
:101CF0007A2002F05BF8012801D101241BE07C204E
:101D000002F054F8012801D1032414E07D2002F0F0
:101D10004DF8012801D104240DE07E2002F046F8A0
:101D2000012801D1052406E07F2002F03FF80128B8
:101D30000CBF0624002402F05BF8204610BDC0460C
:101D4000024B33F8100080B27047C0469E0B002053
:101D500070B5174E1748347800F038FF164D25F847
:101D600014001648347800F031FF083425F81400C8
:101D700033780133DBB233703378082B01D1002381
:101D800033700B4D0E4C2B78012254F82310094868
:101D90000723C9B200F0C4FE2B780848083354F872
:101DA00023100122C9B2072300F0BAFE70BDC0465D
:101DB0009C0B0020002401409E0B002000280140C5
:101DC0003C020020012807D1044B4FF000021A808A
:101DD0001B88034A9BB213807047C046C013002083
:101DE000BE130020012801D0FF2006E0034B1A8813
:101DF000034B1B88981A18BF01207047BE130020A0
:101E0000C0130020012801D0FF200BE0064A1388F0
:101E100001339BB213801388044A9B059B0D32F853
:101E20001330D8B27047C046BE130020BE0B00204E
:101E300000B50B4881B040F2255103F0ABF968B111
:101E4000074803F039F9074A138801339BB213801E
:101E50001388054A9B059B0D22F8130001B000BDB5
:101E600000500040C0130020BE0B002010B53548C4
:101E700040F2255103F08EF900283AD0314803F0A2
:101E80001BF9012104461020FFF702FBDFF8B8C060
:101E90002E489CF800102E4A0378E4B2D454D35C48
:101EA000DFF8B0E02C4A0EF8013003780133DBB2E2
:101EB00003709CF800300133DBB28CF800301378EB
:101EC000002B3ED101231370244B1B78012B06D12C
:101ED000234B24481B781EF8031003F0E9F8204A2E
:101EE0002048137840F226610133DBB213700122DF
:101EF00025E0144840F2266103F04CF908B31A4873
:101F00001A4A03781278934209D00378184AD15CB0
:101F10000133DBB203700B4803F0CAF811E0154837
:101F2000102101F0A7FA1348202101F0A1FA08209E
:101F30000021FFF7ADFA034840F22661002203F0CA
:101F40004BF810BD003801401E0900201A07002080
:101F50001C0500201D080020210900208D0B0020F9
:101F60001F090020004800401D0700201C0700201A
:101F70001B060020000C014070B5384840F2255186
:101F800003F008F90446002845D0344803F094F8DB
:101F9000012104460820FFF77BFA314EDFF8C4C068
:101FA000314D3078314A9CF800102B78E4B2D4548B
:101FB000D35C2F4A2F4C5354535C102123549CF86C
:101FC00000302D480133DBB28CF800302B78013320
:101FD000DBB22B7033780133DBB2337001F03EFAA1
:101FE00000283AD100F1804000F58630202101F030
:101FF00041FA2148102101F03BFA204B20481A7881
:10200000A15C0132D2B21A7003F052F81C4840F2BF
:10201000266101221FE0114840F2266103F0BAF860
:10202000D8B11848184A03781278934209D0037837
:10203000164AD15C0133DBB20370084803F038F86C
:102040000BE010200021FFF723FA114B03481C700E
:1020500040F22661002202F0BFFF70BD0048004040
:102060001C070020180500201C0900201E07002066
:102070001A0300201B060020000C01401D07002051
:10208000003801401F0900201E0900201D08002003
:102090002109002010B50C46E8B900F1804000F598
:1020A0008630202101F0E6F91C48102101F0E0F90A
:1020B000A1B21B4802F0FCFF1948402103F05EF872
:1020C0000028F9D01021154801F0D4F91348202137
:1020D00001F0CEF920E001280ED100F1804000F59A
:1020E0009E4089B2FF3002F0E3FF0E48402103F02A
:1020F00045F80028F9D00FE002280DD100F180400A
:1021000000F58E4089B2FE3002F0D2FF0648402131
:1021100003F034F80028F9D010BDC046000C01408F
:10212000003801400050004000480040014B18704A
:102130007047C046DE130020014B18787047C04638
:10214000DE130020014B18707047C046DF130020DB
:10215000014B18787047C046DF130020054B1B88E1
:102160000BB1012004E0044B1B88181E18BF01208E
:102170007047C046C8130020D8130020164B174ADA
:102180001B78FF2B0FD1164912780B881BBB192A1D
:1021900021D8144B1A80144B4FF000021A804FF0D4
:1021A00001030B8017E0322B127801D9322103E0B2
:1021B000002B14BF194603210C4B332A28BF3322AE
:1021C0001A800B4A01EB810303EB83031380094B55
:1021D0004FF001021A807047DE130020DF13002049
:1021E000C8130020C2130020C6130020DA130020F9
:1021F000DC130020D8130020322901D9322102E05B
:10220000002908BF0321084B332834BF024633227C
:102210001A80064A01EB810303EB83031380044B0E
:102220004FF001021A807047DA130020DC130020FF
:10223000D8130020074A138853B9192808D8064B29
:102240004FF000011880054B19804FF001031380F7
:102250007047C046C8130020C2130020C6130020D8
:1022600030B5074D04462146284681B0640802F087
:1022700095FD2846214602F099FD01B030BDC046CB
:10228000000800404E4970B50B8873B14D4A138861
:102290001BB94FF000020A8039E0013B13804A4B22
:1022A0001A884A4B33F8120086E0494B1B88002BF2
:1022B00000F08480474A1388002B70D146490B8870
:1022C00053B9464B1A88464B53F82220454B128887
:1022D0001A804FF001030B80404B3F4D1A88404B52
:1022E000B5F800C053F822303F4E33F81C203F4B66
:1022F00002F01F011A80D30903F00F003C4B31801C
:10230000188032B9324B4FF000042C801C80002022
:1023100052E012F0200F374B15D012F0400F4FF063
:102320000104354A1C801CBF4B4213802D4B08BF53
:1023300011801B88274A03FB00F31380264B0CF106
:1023400001021A803AE04FF000021E291A8008D1DB
:10235000244B204A1B8803FB00F313800CF101037C
:102360001BE0264A1388012B1CBF0124148025D1B1
:102370004FF0000313801B4B164A1B88204C03FBB5
:1023800000F334F811001380FFF76AFF32881D4B09
:1023900034F812201A802B8801332B800EE0013B89
:1023A0001380144B1B88012B08D1164A124B188836
:1023B0001388C01880B21080FFF752FF70BDC0466E
:1023C000D8130020DC130020DA130020E483000877
:1023D000C8130020C4130020C6130020C21300201D
:1023E0007C020020E4020020CC130020CA1300204D
:1023F000CE130020D0130020D4130020D6130020C9
:102400004C840008D213002000B5064B4FF00002A8
:102410001A80054B81B01A800020FFF721FF01B020
:1024200000BDC046D8130020C81300200449054A47
:102430000B78C0B2D0540133DBB20B707047C0468A
:10244000E0130020FC130020014B00221A7070479B
:10245000E013002070B562498B784A78487902EB26
:102460000322604B92B21A800B7912B203EB002365
:102470001FFA83FC5C4B087AA3F800C0CB7903EB0E
:1024800000239CB2594BC87A1C808B7A03EB002343
:102490009DB2574B887B1D804B7B03EB00239EB284
:1024A000544B487C1E800B7C03EB002399B2524BAB
:1024B000198002F13F0332EA220228BF1A46921124
:1024C00002EB8202D31C32EA220228BF1A46921083
:1024D00002F5007240F2FF339A42C8BF1A4602DC8E
:1024E000002AB8BF0022454B1A800FFA8CF303F183
:1024F0003F0233EA230328BF13469B1103EB8303F8
:10250000DA1C33EA230328BF13469B1003F500723D
:1025100040F2FF339A42C8BF1A4602DC002AB8BF15
:102520000022374B1A8023B203F13F0233EA230320
:1025300028BF13469B1103EB8303DA1C33EA230302
:1025400028BF13469B1003F5007240F2FF339A42F6
:10255000C8BF1A4602DC002AB8BF0022294B1A80E5
:102560002BB203F13F0233EA230328BF13469B112A
:10257000C3F5007240F2FF339A42C8BF1A4602DC2C
:10258000002AB8BF0022204B1A8033B203F13F0269
:1025900033EA230328BF13469B11C3F5007240F2B0
:1025A000FF339A42C8BF1A4602DC002AB8BF002295
:1025B000164B1A800BB203F13F0233EA230328BF04
:1025C00013469B1103F5007240F2FF339A42C8BFD5
:1025D0001A4602DC002AB8BF00220D4B1A8070BDDB
:1025E000FC130020E4130020E6130020E813002071
:1025F000EA130020EC130020EE130020F01300205B
:10260000F2130020F4130020F6130020F81300202A
:10261000FA130020014B18887047C046F0130020C1
:10262000014B18887047C046F2130020014B1888F0
:102630007047C046F4130020014B18887047C0460D
:10264000F6130020014B18887047C046F81300208D
:10265000014B18887047C046FA130020014BB3F9AC
:1026600000007047E4130020014BB3F900007047ED
:10267000E6130020014BB3F900007047E813002077
:10268000014BB3F900007047EA130020014BB3F986
:1026900000007047EC130020014BB3F900007047B5
:1026A000EE13002070B53C4E3C4D00243C48022106
:1026B00001F088FC0028F9D03A484FF4006100F09E
:1026C000D9FE315D364801F021FC3548022101F088
:1026D00079FC0028F9D03248012101F073FC002870
:1026E000F9D02F4801F014FC2B782F4AC0B2D054F7
:1026F00001332E4A0134DBB22B7084FB0223A3EB9F
:10270000E47303EB43039C4204D126484FF4006179
:1027100000F0AEFE092CC9D11F4E204D00242048E8
:10272000022101F04FFC0028F9D01E484FF48061CF
:1027300000F0A0FE315D1A4801F0E8FB18480221C4
:1027400001F040FC0028F9D01548012101F03AFCC5
:102750000028F9D0124801F0DBFB2B78124AC0B2F6
:10276000D0540133114A0134DBB22B7084FB0223B5
:10277000A3EBE47303EB43039C4204D109484FF4F9
:10278000806100F075FE092CC9D1FFF763FE034B91
:1027900000221A7070BDC046E8020020E01300203D
:1027A0000038004000100140FC13002056555555DC
:1027B00010B54748022101F005FC0028F9D0454832
:1027C0004FF4806100F056FE4148202101F09EFB4D
:1027D0003F48022101F0F6FB0028F9D03C480121D6
:1027E00001F0F0FB0028F9D0394801F091FB3A499B
:1027F0003A4A0B78C0B2D0540133DBB20B70344884
:102800003F2101F083FB3248022101F0DBFB00286D
:10281000F9D02F48012101F0D5FB0028F9D02C4830
:1028200001F076FB2C492D4A0B78C0B2D05401330D
:10283000DBB20B7027484FF4806100F019FE24488A
:10284000022101F0BFFB0028F9D022484FF480613B
:1028500000F010FE1E48232101F058FB1C48022105
:1028600001F0B0FB0028F9D01948012101F0AAFBC2
:102870000028F9D0164801F04BFB1749174A0B788E
:10288000C0B2D0540133DBB20B701148102101F0FB
:102890003DFB0F48022101F095FB0028F9D00C48C0
:1028A000012101F08FFB0028F9D0094801F030FB2D
:1028B000094C0A4A2378C0B2D0540133DBB2054830
:1028C0004FF48061237000F0D3FD0023237010BD0E
:1028D0000038004000100140E0130020FC130020ED
:1028E00010B54748022101F06DFB0028F9D045489A
:1028F0004FF4006100F0BEFD4148202101F006FBCD
:102900003F48022101F05EFB0028F9D03C4801213C
:1029100001F058FB0028F9D0394801F0F9FA3A499A
:102920003A4A0B78C0B2D0540133DBB20B70344852
:10293000FF2101F0EBFA3248022101F043FB0028AD
:10294000F9D02F48012101F03DFB0028F9D02C4897
:1029500001F0DEFA2C492D4A0B78C0B2D054013375
:10296000DBB20B7027484FF4006100F081FD244872
:10297000022101F027FB0028F9D022484FF4006122
:1029800000F078FD1E48232101F0C0FA1C48022106
:1029900001F018FB0028F9D01948012101F012FBC1
:1029A0000028F9D0164801F0B3FA1749174A0B78F6
:1029B000C0B2D0540133DBB20B701148202101F0BA
:1029C000A5FA0F48022101F0FDFA0028F9D00C48C1
:1029D000012101F0F7FA0028F9D0094801F098FA2E
:1029E000094C0A4A2378C0B2D0540133DBB20548FF
:1029F0004FF40061237000F03BFD0023237010BDF5
:102A00000038004000100140E0130020FC130020BB
:102A100043680A6823F4702323F4807313430A790C
:102A200043EA02234360CB688A68D0F808C01A439F
:102A3000084B0CEA03031A434B7942EA43028260D3
:102A40000B7CC26A013B22F47002DBB242EA035201
:102A5000C2627047FDF7F1FF002303600371437109
:102A60008360C360012303747047C04619B1836853
:102A700043F0010302E0836823F0010383607047A1
:102A800019B1836843F4807302E0836823F4807390
:102A900083607047C9B21AB1436841EA030302E098
:102AA000436823EA010343607047C046836843F0EC
:102AB000080383607047C0468068C00800F00100CA
:102AC0007047C046836843F0040383607047C04684
:102AD0008068800800F001007047C04619B1836823
:102AE00043F4A00302E0836823F4A00383607047EB
:102AF0008068800D00F001007047C04643680139CE
:102B000023F4604343EA41334360704719B143689B
:102B100043F4006302E0436823F4006343607047BA
:102B2000092930B594460C461D464FEA41020BD99F
:102B300012191E3A0723934015FA02F2C16821EADE
:102B400003011143C16009E012190723934015FAEC
:102B500002F2016921EA030111430161BCF1060F90
:102B60000CD80CEB8C02053A1F23934014FA02F2A6
:102B7000416B21EA0301114341631BE0BCF10C0FDF
:102B80004FEA8C020BD86244233A1F23934014FA75
:102B900002F2016B21EA0301114301630AE062447E
:102BA000413A1F23934014FA02F2C16A21EA030159
:102BB0001143C16230BDC04619B1836843F480132C
:102BC00002E0836823F4801383607047C06C80B296
:102BD0007047C046014B18687047C0464C240140FE
:102BE00019B1436843F4806302E0436823F48063CF
:102BF0004360704719B1436843F4805302E043686F
:102C000023F4805343607047836823F4E0431943FF
:102C10008160704719B1836843F4004302E0836820
:102C200023F400438360704719B1836843F40213AF
:102C300002E0836823F40213836070478068400DCC
:102C400000F001007047C046092930B58C46154692
:102C50001C464FEA41020BD962441E3A07239340B7
:102C600014FA02F2C16821EA03011143C16009E0CC
:102C700062440723934014FA02F2016921EA030136
:102C800011430161836B1F2103F440126FEA12525A
:102C90002A440332D2B202EB820291400CFA02F2D1
:102CA00023EA01031343836330BDC046836B0139BC
:102CB00023F4401343EA01538363704782B00A5000
:102CC00002B0704782B001902830405880B202B004
:102CD0007047C046436823F4400323F4007319434C
:102CE00041607047416282627047C046436823F08A
:102CF0001F0319434160704720B1054A936843F4AC
:102D0000000303E0024A936823F4000393607047D2
:102D100000240140036819420CBF002001207047C5
:102D20006FEA0101016070474268036813EA1123EA
:102D300001D1002004E0CBB213420CBF00200120DF
:102D40007047C0466FEA11210160704700B5144B0F
:102D500083B0984201900FD003F5A053984213D04E
:102D6000A3F5C053984219D14FF40070012100F02F
:102D7000EFFF4FF400700EE04FF48060012100F08F
:102D8000E7FF4FF4806006E04FF40040012100F0BF
:102D9000DFFF4FF40040002100F0DAFF03B000BD78
:102DA00000280140014B18607047C04604860D4260
:102DB000014B18607047C04600860D42014B1860F9
:102DC0007047C04688860D42044A938D23F4607391
:102DD0001B041B0C184390857047C046006C0040D4
:102DE000044A938D23F07F031B041B0C034393853C
:102DF0007047C046006C004000F1804000F5D840AC
:102E00000180704700F1804000F5D840008880B212
:102E10007047C046014B1868C0B27047A0860D428B
:102E2000034A938E9BB243F0010393867047C046DA
:102E3000006C0040014B1868C0B27047A4860D4278
:102E4000034A938E9BB243F0020393867047C046B9
:102E5000006C004000B5012081B000F095FF00201B
:102E600000F092FF01B000BD044A136803F038037C
:102E700013601368184310607047C046002002407A
:102E8000044A136823F008031360136818431060A2
:102E90007047C04600200240044A136823F0100324
:102EA00013601368184310607047C046002002404A
:102EB000034B044A5A6002F188325A607047C04698
:102EC0000020024023016745024A136943F0800352
:102ED0001361704700200240014BD8698008704799
:102EE00000200240014B186A7047C0460020024093
:102EF000024BD869400800F00100704700200240F2
:102F0000024B1868400900F00100704700200240A1
:102F100021B1054A136940EA030303E0024A136939
:102F200023EA00031361704700200240012804D106
:102F3000054BDB6903F0010005E0034BDB68184239
:102F40000CBF00200120704700200240014BD860D8
:102F50007047C04600200240094AD36813F0010FB1
:102F600001D001200BE0D36813F0040F01D0022040
:102F700005E0D36813F0100F14BF0320042070473E
:102F80000020024010B5234A82B0D368014613F0F6
:102F9000010F01D001202AE0D36813F0040F01D003
:102FA000022024E0D36813F0100F14BF0320042084
:102FB0001DE00194CDF804C002E0019B013B0193A8
:102FC000019B002BF9D1D36813F0010F01D0012030
:102FD0000BE0D36813F0040F01D0022005E0D368A2
:102FE00013F0100F14BF03200420013903E0094A35
:102FF00000244FF0FF0C0B1E18BF0123012814BF43
:10300000002303F00103002BD3D1002908BF0520C2
:1030100002B010BD00200240F0B5134B134C81B03C
:10302000A36003F188330546A3600F200E461746C0
:10303000FFF7A8FF042815D123690D4A43F01003B8
:10304000236145F0F80346EA030347EA030353808C
:103050000F20FFF797FF01281FBF226941F6EF738A
:103060001340236101B0F0BD2301674500200240F9
:1030700000F8FF1F30B5054681B040F6FF70FFF73E
:1030800081FF04283CD11F4C1F4B00F57E60A360DC
:1030900003F18833A36023691B3043F020032361CD
:1030A000236943F040032361FFF76CFF042820D11C
:1030B000236941F6DF7203EA02022261236943F0C9
:1030C000100323611DB1114B4FF0000202E00F4BC2
:1030D0004FF0A5021A8040F6FF70FFF753FF01285A
:1030E0000ED0084941F6EF730A6902EA03030B6147
:1030F00006E001281FBF226941F6DF7313402361F8
:1031000001B030BD002002402301674500F8FF1FD9
:1031100010B504460F20FFF735FF042850D1294A87
:10312000294B6FEA0404936003F1883393601369B9
:10313000E1B243F01003FF29136104D0234B0F20A9
:103140001981FFF71FFF04F47F431A0AB2F1FF034E
:1031500018BF0123042814BF002303F0010323B187
:103160001A4B0F205A81FFF70DFF04F47F031A0C4E
:10317000B2F1FF0318BF0123042814BF002303F09A
:10318000010323B1114B0F209A81FFF7FBFE220EA2
:10319000B2F1FF0318BF0123042814BF002303F07A
:1031A000010323B1094B0F20DA81FFF7EBFE012861
:1031B0001FBF044941F6EF730A69134018BF0B6142
:1031C00010BDC046002002402301674500F8FF1FE4
:1031D00070B506460F200D46FFF7D4FE042814D123
:1031E0000A4C0B4B0F20A36003F18833A3602369C3
:1031F00043F0100323613580FFF7C4FE01281FBF91
:10320000226941F6EF731340236170BD0020024034
:103210002301674570B506460F200D46FFF7B2FE45
:1032200004280FD1084C0F20236943F001032361C8
:103230003580FFF7A7FE01281FBF226941F6FE7304
:103240001340236170BDC0460020024070B50646A1
:103250000F200D46FFF796FE042817D10C4C0F20C7
:10326000236943F001032361ABB23380FFF78AFE89
:10327000042804D12B0C73800F20FFF783FE012854
:103280001FBF226941F6FE731340236170BDC04623
:103290000020024010B540F6FF70FFF773FE0428CF
:1032A0002CD1174C174B00F57E60A36003F18833D7
:1032B000A36023691B3043F020032361236943F09B
:1032C00040032361FFF75EFE042810D1226941F616
:1032D000DF7302EA0303236123694FF0A50243F081
:1032E00010032361084B0F201A80FFF74BFE0128C3
:1032F0001FBF226941F6EF731340236110BDC04622
:10330000002002402301674500F8FF1F10B540F67A
:10331000FF70FFF737FE042813D10A4C23690343DB
:103320002361236900F57E6043F0400323611B3075
:10333000FFF728FE01281FBF226941F6FB731340E7
:10334000236110BD0020024030B5054681B040F633
:10335000FF70FFF717FE042815D10C4C00F57E60B6
:1033600023691B3043F0020323616561236943F045
:1033700040032361FFF706FE01281FBF226941F6C3
:10338000FD731340236101B030BDC04600200240F0
:10339000F0B5CD780E8815F0100F18BF8B7805F0BA
:1033A0000F0718BF1F4316F0FF0F83B01ED004682D
:1033B0000021012212FA01F303EA060C9C4511D107
:1033C0008A000F23934017FA02F224EA03041443FD
:1033D000282D019308BFC0F814C003D0482D08BFA2
:1033E000C0F810C001310829E3D10460FF2E20D9B4
:1033F00044680021012201F1080312FA03F303EAF1
:10340000060C9C4511D18A000F23934017FA02F253
:1034100024EA03041443282D019308BFC0F814C004
:1034200003D0482D08BFC0F810C001310829E1D1F0
:10343000446003B0F0BDC0464FF0FF330380022369
:1034400083700423C3707047836819420CBF002047
:1034500001207047806880B27047C046C368194237
:103460000CBF002001207047C06880B27047C04682
:1034700001617047416170470AB1016100E041613B
:103480007047C046C160704741F4803383618161F9
:103490008361836983697047DFF818C04FF68073D2
:1034A000DCF8002041EA001102EA03031943CCF8DA
:1034B0000010704700000140014B18607047C04683
:1034C0001C00204230B500F4401304040D4614499A
:1034D000240CB3F5401FD1F804C006D14B682CF082
:1034E000706223F070634B6010E010F4801F05D011
:1034F00000F47022120C0323934003E0430D1B01E0
:1035000014FA03F32CEA030343F0706225B1430D70
:103510001B0114FA03F31A43014B5A6030BDC04635
:103520000000014010B501F00304A4000F23A340E4
:10353000A040DFF820C0890802315CF8212022EA8F
:1035400003024CF821205CF8213018434CF821008C
:1035500010BDC0460000014000B50120012181B02E
:1035600000F0F6FB0120002100F0F2FB01B000BDED
:1035700000B5274B83B0984201902BD00CD8A3F50F
:10358000006398421AD003F5806398421CD0A3F5DB
:10359000006398423AD10BE01E4B984226D003F5C7
:1035A0008063984228D0A3F5006398422ED117E09B
:1035B0000420012100F0CCFB042024E0082001219C
:1035C00000F0C6FB08201EE01020012100F0C0FB27
:1035D000102018E02020012100F0BAFB202012E08A
:1035E0004020012100F0B4FB40200CE080200121AC
:1035F00000F0AEFB802006E04FF48070012100F067
:10360000A7FB4FF48070002100F0A2FB03B000BDC7
:1036100000140140001C01400B4B4FF0FF316FF0D4
:103620007042C3F880101846C3F88420C3F8801194
:10363000C3F884210021002202F1C00301320F2AC5
:1036400040F82310F8D1704700E100E0094A4FF03C
:1036500020630949536000239360D1601361536173
:103660009361D36113625362013B9362D36213632C
:103670007047C04600ED00E00000FA0540F0BE6073
:10368000024B40F42020D8607047C04600ED00E0B7
:1036900030B5C37805785BB31A4B4178DA681A4CB9
:1036A0006FEA020202F4E062120AC2F104039940D6
:1036B0000F23D340827805F0030013400B43C00072
:1036C0001B01FF22824083404FEA950C0CF1C00C95
:1036D00054F82C10134021EA02010B4344F82C301B
:1036E00005F01F0201239340690944F8213008E0E6
:1036F00005F01F02012393406909034A203142F873
:10370000213030BD00ED00E000E100E00023037057
:1037100043708370C3707047034B04485B6803EACF
:103720000000000B7047C04600ED00E000F03F00D5
:1037300000F01F0301229A404009054B403053F826
:1037400020001040904214BF002001207047C04666
:1037500000E100E0014B18607047C04600EF00E058
:103760004109012300F01F008340024A603142F802
:103770002130704700E100E0024B58688005800D61
:103780007047C04600ED00E000F01F0301229A40A0
:103790004009054B803053F820001040904214BF80
:1037A000002001207047C04600E100E0014B18688E
:1037B0007047C04600ED00E021F0604121F07F013C
:1037C000014B01439960704700ED00E0014A024B54
:1037D000DA6070470400FA0500ED00E0014A024B90
:1037E000DA6070470100FA0500ED00E021B1054AFA
:1037F000136940EA030303E0024A136923EA000362
:103800001361704700ED00E000F01F00012313FA80
:1038100000F021B1054A536A40EA030303E0034A7A
:10382000536A23EA000353627047C04600ED00E08C
:1038300010B5144CE3686FEA030303F4E0631B0A5A
:10384000C3F1040C01FA0CF14FF0FF0C2CFA03F356
:103850001A400A4300F0C001400900F018000CFAB9
:1038600000FC120182408909063154F8213023EA14
:103870000C0344F8213054F821301A4344F8212035
:1038800010BDC04600ED00E0800A00F00F000123EB
:103890008340044A506A03EA0000984214BF0020A3
:1038A0000120704700ED00E000F01F00012383407D
:1038B000024A51680B4353607047C04600ED00E078
:1038C00000F01F00013801238340024A51680B4376
:1038D0005360704700ED00E0800B00F00F00012303
:1038E0008340044A506A03EA0000984214BF002053
:1038F0000120704700ED00E0830C13F0030302D1B8
:103900000D4BD86A17E0012B13D103F1604303F587
:103910006C43FE33020D013302F00302996AD300B7
:1039200031FA03F0022A14BF00F00F0000F0FF008C
:1039300001E0014B186B704700ED00E010F4800FC0
:103940000BBF024B014B586B986B704700ED00E0CA
:1039500000B581B001F014FD01B000BD00B500015B
:1039600081B001F00AFD01B000BDC04600B581B0D4
:1039700001F001FD01B000BD00B581B001F0F9FC1E
:1039800001B000BD00B581B001F0F1FC01B000BD97
:1039900000B581B001F0E9FC01B000BD014B186039
:1039A0007047C04620000E42014B18607047C04669
:1039B00010000E42034A136823F0E003184310601E
:1039C0007047C04600700040014B18607047C04609
:1039D000A0000E42034B5B6818420CBF0020012080
:1039E0007047C04600700040024A136843EA8003F3
:1039F00013607047007000400B4A00B5136881B037
:103A000043F004031360136843F00203136002F1F0
:103A1000204202F5FA421032136843F004031360A7
:103A200001F07EFC01B000BD007000400C4A00B502
:103A3000136881B023F003031843106002F12042A1
:103A400002F5FA4210321368012943F004031360AF
:103A500002D101F065FC01E001F064FC01B000BDA1
:103A60000070004010B54FF080542046012100F056
:103A70007DF92046002100F079F910BD0D4A136848
:103A800043F00103136051680B4B01EA03035360D9
:103A9000136823F0847323F480331360136823F4D2
:103AA00080231360536823F4FE0353600023936064
:103AB0007047C046001002400000FFF80B4AB0F506
:103AC000803F136823F480331360136823F480234A
:103AD000136003D0B0F5802F07D102E013680343D1
:103AE00002E0136843F4A023136070470010024003
:103AF00082B00023094901930A68019B013312F443
:103B0000003F019303D1019BB3F5A06FF4D1034BA8
:103B10001868400C00F0010002B07047001002402D
:103B2000034A136823F0F80343EAC00313607047A5
:103B300000100240014B18607047C046000042422E
:103B4000034A536823F47C131843084350607047BA
:103B500000100240014B18607047C04660004242AE
:103B6000034A536823F00303184350607047C0466C
:103B700000100240024B586800F00C007047C0462D
:103B800000100240034A536823F0F00318435060CA
:103B90007047C04600100240034A536823F4E063B4
:103BA000184350607047C04600100240034A5368F3
:103BB00023F4605343EAC00353607047001002408F
:103BC00021B1054A137840EA030303E0024A13785F
:103BD00023EA00031370704709100240014B18607C
:103BE0007047C046D8004242034A536823F440431A
:103BF000184350607047C04600100240064A002338
:103C000001281370137008BF107003D0042801D16D
:103C1000052313707047C04620100240014B186006
:103C20007047C04680044242024A136A1843106239
:103C30007047C04600100240014B18607047C046F4
:103C40003C044242294984464B6803F00C03042B90
:103C500021D0082B1FD14B6803F470139B0C9A1CC6
:103C60004B6813F4803F08BFC2EB421306D04B6889
:103C700013F4003F4FEA421306D09B1AC3EB8313A1
:103C800002EBC3031B0207E09B1AC3EB831302EB97
:103C9000C3035B0200E0164B1448CCF800304368C5
:103CA000144A03F0F0031B09D35CDCF80010D94080
:103CB000CCF80410436803F4E0631B0AD35C31FAC8
:103CC00003F3CCF80830436803F46053DB0AD35C99
:103CD000094AD940CCF80C10436803F440439B0BCD
:103CE000D35CB1FBF3F1CCF8101070470010024028
:103CF00000127A00648600087486000821B1054A23
:103D0000536940EA030303E0024A536923EA0003CC
:103D1000536170470010024021B1054A936940EA9F
:103D2000030303E0024A936923EA000393617047A7
:103D30000010024021B1054AD36940EA030303E0C1
:103D4000024AD36923EA0003D3617047001002409E
:103D500021B1054AD36840EA030303E0024AD3686D
:103D600023EA0003D36070470010024021B1054AE6
:103D7000136940EA030303E0024A136923EA0003DC
:103D80001361704700100240014B18607047C04635
:103D900040044242014B18607047C0464C0042420A
:103DA000014B18707047C046071002404309012BB1
:103DB00008D103F1804303F5023303F5FF630733B2
:103DC0001B680CE0022B08D103F1804303F502339A
:103DD00003F5FF6306331B6A01E0044B5B6A00F0E6
:103DE0001F0033FA00F000F001007047001002409D
:103DF000024A536A43F080735362704700100240D6
:103E0000034B9B6818420CBF002001207047C0463E
:103E100000100240014B18707047C0460A10024063
:103E20000A884B88B0F800C013438A880CF4415CC0
:103E30001343CA8813430A8913434A8913438A895F
:103E40001343CA8913434CEA030C1FFA8CFCA0F8F5
:103E500000C0838B23F400631B041B0C83830B8A39
:103E6000038270474FF00003038043808380C38048
:103E7000038143818381C3814FF00703038270472D
:103E80004FF00003038043808380C3804FF0020320
:103E900003814FF0000343817047C04621B103887E
:103EA0009BB243F0400304E0038823F040031B046B
:103EB0001B0C03807047C04621B1838B9BB243F437
:103EC000806304E0838B23F480631B041B0C8383D7
:103ED0007047C046090901238B4099B222B18388FB
:103EE0009BB241EA030303E083889BB223EA010308
:103EF0008380704722B183889BB241EA030303E0C9
:103F000083889BB223EA01038380704781817047D5
:103F1000808980B27047C0464FF6FF63994217BF51
:103F2000038803889BB243F4807308BF0B4003806F
:103F30007047C04621B183889BB243F0040304E07C
:103F4000838823F004031B041B0C83807047C04646
:103F5000038823F400631B041B0C038003889BB2BB
:103F6000194301807047C04603889BB243F48053D5
:103F70000380704721B103889BB243F4005304E0EF
:103F8000038823F400531B041B0C03807047C046B6
:103F9000012914BF038B838A98B27047008A80B2CC
:103FA0007047C046B1F5804F04D103889BB243F4FB
:103FB000804304E0038823F480431B041B0C03802C
:103FC0007047C046038919420CBF0020012070478A
:103FD0006FEA010189B201817047C0468388028976
:103FE0001FFA83FC012001F00F0310FA03F392B2D1
:103FF0001A4201D1002007E00B0910FA03F31CEA72
:10400000030F0CBF002001207047C04601F00F01D4
:1040100001238B406FEA03039BB203817047C046C4
:10402000838BF0B523F47A6323F01F031B041B0C6E
:1040300083834FF002030384838B87B09FB20B8985
:104040000546022B0C4602D10221002226E08B8875
:1040500001A8002B0CBF01260226FFF7F3FDE38821
:104060002289B3F5007F019B04D103EB83035B003E
:10407000120205E0520106FB02F203EB83035B0030
:10408000B3FBF2F30533134A9BB2A3FB0223DB0815
:1040900003F0010212025B0899B292B28B1E9BB22E
:1040A000FE2B28BF002228BF022141EA0203E2883A
:1040B00013439BB22B842388628847EA030343F4AB
:1040C00000631343A2881343628913439BB2AB83FB
:1040D00007B0F0BDCDCCCCCC00B5164B83B0984228
:1040E00001901BD003F57443984204D0A3F57843A4
:1040F00098421DD10AE001214FF48050FFF728FEBD
:104100004FF480500021FFF723FE11E04FF4804070
:104110000121FFF72BFE4FF4804006E04FF40040F2
:104120000121FFF723FE4FF400400021FFF71EFEA0
:1041300003B000BD003C0040042803D1044A1368CA
:10414000034303E0024A136823F00403136070473B
:1041500010E000E0014B58607047C04610E000E0FE
:10416000012803D1084A1368034306E010F1020F47
:1041700005D1054A136823F00103136002E0024BE6
:1041800000229A607047C04610E000E020B1054A66
:10419000136843F0020303E0024A136823F00203AA
:1041A0001360704710E000E0014B98687047C0460C
:1041B00010E000E0C308022B024606D103F1604381
:1041C00003F560430E33186801E0034BD868D04014
:1041D00000F001007047C04610E000E0038882B0A4
:1041E00003F08F0303800388CA889BB213434A8875
:1041F000019013439BB203808B880B4A83850B8805
:104200008C4603854FF001038382084B984214BF0C
:1042100000230123904208BF43F0010313B19CF82F
:104220000830038602B07047002C01400034014082
:10423000038C8C4623F001031B041B0C0384018CAC
:104240008388F0B59DB2038BBCF808209EB2BCF801
:10425000023021F00201134309049BB2090C43EA26
:104260000104BCF80630BCF8007083861A4B1B4A68
:10427000984214BF0023012383B0904208BF43F04B
:1042800001030190EBB102F14042A2F53052BCF8BB
:104290000A30093A04EA02021A434FF6FB7302EAB3
:1042A0000303BCF8042047F6FF4143EA0204BCF8CC
:1042B0000E30BCF80C2005EA010113439BB243EA1F
:1042C00001054FF68F7306EA03033B4385800383A2
:1042D000048403B0F0BDC04600340140002C01400E
:1042E000038CF0B523F010031B041B0C0384038C18
:1042F000828823F0200395B2028B1B0496B20A89B0
:104300001B0C43EA02134A889BB243EA02139CB295
:10431000CB880F8803871E4B1E4A984214BF002388
:10432000012383B0904208BF43F0010301908C4603
:104330000BB302F14042A2F53252BCF80A30013A06
:1043400004EA020242EA03124FF6BF7302EA0303D1
:10435000BCF8042043EA02139CB2BCF80C2047F2DC
:10436000FF3305EA030343EA8203BCF80E209BB245
:1043700043EA82039DB248F6FF7306EA030343EA69
:1043800007239BB285800383048403B0F0BDC0463D
:1043900000340140002C0140038CF0B523F48073FD
:1043A0001B041B0C0384038C828823F4007395B2D6
:1043B000828B1B0496B20A891B0C43EA02234A88AB
:1043C0009BB243EA02239CB2CB880F8883871D4BA4
:1043D0001D4A984214BF0023012383B0904208BFB6
:1043E00043F0010301908C460BB302F14042A2F569
:1043F0005052BCF80A30013A04EA020242EA0322AF
:104400004FF6FF3302EA0303BCF8042043EA022319
:104410009CB2BCF80C2044F6FF7305EA030343EAA0
:104420000213BCF80E209BB243EA02139DB24FF672
:104430008F7306EA03033B4385808383048403B0C0
:10444000F0BDC04600340140002C0140038CF0B5A3
:1044500023F480531B041B0C0384038C85B09BB294
:10446000029383884A881FFA83FC838B0E889DB24F
:10447000CB880F89A0F84030174B0192174A984219
:1044800014BF00230123904208BF43F001030390AF
:104490000C463BB14FEA8C43A2899B0C43EA821342
:1044A0001FFA83FC48F6FF7305EA030343EA062379
:1044B0009BB2029AA0F804C083834DF6FF7302EA10
:1044C000030343EA0733019A9BB243EA02339BB2E8
:1044D000038405B0F0BDC04600340140002C01400B
:1044E0000B8830B504460D4643BB238C498823F026
:1044F00001031B041B0CB5F804C028892384238BFB
:10450000228C23F0F3031B041B0C22F0020243EA6B
:10451000001312049BB2120C41F0010143EA0C0398
:104520000A4323832284238BEA8823F00C031B0491
:104530001B0C2383238B9BB213432EE0042B2ED121
:10454000238CB1F802C023F010031B041B0C8888D5
:1045500009892384238B228C23F440731B0522F0CA
:1045600020021B0D120443EA0133120C9BB242EAF3
:104570000C1243EA002392B29BB242F01002238352
:104580002284238BEA8823F440631B041B0C2383BF
:10459000238B9BB243EA02239BB2238355E0082B73
:1045A000B1F802C08888098925D1238C23F480734F
:1045B0001B041B0C2384A38B228C23F0F30322F413
:1045C00000721B0412041B0C120C43EA011342EA92
:1045D0000C229BB292B2034342F48072A3832284E2
:1045E000A38BEA8823F00C031B041B0CA383A38B6F
:1045F0009BB2134328E0238C23F480531B041B0C31
:104600002384A38B228C23F440731B0522F40052D5
:104610001B0D120443EA0023120C9BB242EA0C3237
:1046200043EA013392B29BB242F48052A3832284C4
:10463000A38BEA8823F440631B041B0CA383A38B86
:104640009BB243EA02239BB2A38330BD8C46F0B5F4
:10465000BCF800304C888988002C0CBF022700274A
:1046600001290CBF02260126BCF80850002B4BD1B3
:10467000038C23F001031B041B0C0384038B028CAB
:1046800023F0F3031B041B0C43EA051322F0020280
:104690009BB212040B43120C44F001010A43038342
:1046A0000284038BBCF8061023F00C031B041B0CC4
:1046B0000383038B9BB20B430383038C23F0100310
:1046C0001B041B0C0384038B028C23F440731B0517
:1046D00022F030021B0D120443EA0533120C9BB288
:1046E00042F0100243EA062342EA071203830284DF
:1046F000038B23F440631B041B0C0383038B9BB2CB
:1047000043EA01239BB24CE0038C23F010031B040B
:104710001B0C0384038B028C23F440731B0522F0D3
:1047200020021B0D120443EA0533120C9BB242EA2D
:10473000041243EA012392B29BB242F010020383B7
:104740000284038BBCF8061023F440631B041B0C8B
:104750000383038B9BB243EA01239BB20383038C45
:1047600023F001031B041B0C0384038B028C23F036
:10477000F3031B0422F003021B0C120443EA05138B
:10478000120C9BB242F0010233433A43038302848A
:10479000038B23F00C031B041B0C0383038B9BB2C2
:1047A0000B430383F0BDC0460A884B8813438A88B5
:1047B0001343CA8813430A8913434A8913438A89D6
:1047C00013439BB2A0F844307047C0464FF0FF330C
:1047D00083804FF000030380C38043800023037273
:1047E0007047C0464FF00003038043808380C3803E
:1047F000038143818381C3817047C0464FF000032A
:10480000038043804FF0010383804FF00003C38097
:10481000038170474FF00003038043808380C3808F
:10482000038143818381704721B103889BB243F0A8
:10483000010304E0038823F001039B059B0D038023
:104840007047C04629B1B0F844309BB243F40043EE
:1048500003E0B0F844305B045B0CA0F844307047D0
:1048600022B183899BB241EA030303E083899BB2AF
:1048700023EA010383817047818270470A43A0F8CD
:104880004820704722B183899BB241EA030303E0C9
:1048900083899BB223EA010383817047038923F054
:1048A00007031B041B0C03817047C046038923F0D8
:1048B00070031B041B0C1943018103899BB243F055
:1048C000070303817047C04610B50C46602C1146A3
:1048D0009C461AD1038C23F010031B041B0C038489
:1048E000038B028C23F4407322F030021B05120468
:1048F0001B0D120C43F4807342F0100243EA0C3398
:1049000042EA01129BB292B217E0038C23F001033A
:104910001B041B0C0384038B028C23F0F3031B0486
:1049200022F003021B0C120443F00103120C43EAB1
:104930000C1342F001029BB20A43038302840389F1
:1049400023F070031B041B0C44EA03030381038957
:104950009BB243F00703038110BDC046B0F808C006
:104960005FFA8CFC41EA0C010A4342EA032292B24C
:104970000281038923F077031B041B0C43F07703A8
:1049800003817047B0F808C05FFA8CFC41EA0C0163
:104990000A4342EA032292B2028103899BB243F4A2
:1049A000804303817047C046B0F808C05FFA8CFCB2
:1049B00041EA0C010A4342EA032292B202817047A3
:1049C000018582827047C046038823F070039B05EF
:1049D0009B0D194301807047038923F070031B046A
:1049E0001B0C194301817047B0F808C030B5048B27
:1049F000058C24F4407425F0220524F003042D04D2
:104A00002CF0070C24042D0C4FEA0C4C240C2A43E8
:104A10004FEA1C4C44F4807442EA031241EA0C0150
:104A200044F0010492B201810483028430BDC04687
:104A3000038B23F070031B041B0C19430183704785
:104A4000038B23F4E0431B041B0C43EA01239BB2BA
:104A500003837047838B23F070031B041B0C1943E3
:104A600081837047838B23F4E0431B041B0C43EAD0
:104A700001239BB28383704721B103889BB243F02B
:104A8000800304E0038823F080039B059B0D0380D3
:104A90007047C04621B183889BB243F0040304E011
:104AA000838823F004031B041B0C83807047C046DB
:104AB00021B183889BB243F0080304E0838823F08C
:104AC00008031B041B0C83807047C04621B18388F8
:104AD0009BB243F0010304E0838823F001031B042D
:104AE0001B0C83807047C046038B23F008031B0414
:104AF0001B0C194301837047038B23F400631B04D1
:104B00001B0C43EA01239BB203837047838B23F082
:104B100008031B041B0C194381837047838B23F408
:104B200000631B041B0C43EA01239BB28383704781
:104B3000038B23F004031B041B0C194301837047F0
:104B4000038B23F480631B041B0C43EA01239BB2F9
:104B500003837047838B23F004031B041B0C19434E
:104B600081837047838B23F480631B041B0C43EA0F
:104B700001239BB283837047038B23F080031B04C4
:104B80001B0C194301837047038B5B045B0C43EAE6
:104B900001239BB203837047838B23F080031B04A4
:104BA0001B0C194381837047838B5B045B0C43EAC6
:104BB00001239BB283837047038C23F002031B0401
:104BC0001B0C194301847047038C23F008031B045A
:104BD0001B0C194301847047038C23F020031B0432
:104BE0001B0C43EA01139BB203847047038C23F030
:104BF00080031B041B0C43EA01139BB20384704720
:104C0000038C23F400731B041B0C43EA01239BB2A7
:104C100003847047038C23F400631B041B0C43EADA
:104C200001239BB203847047038C23F400531B04BD
:104C30001B0C43EA01339BB20384704701238B4072
:104C40008A40B0F820C01FFA8CFC2CEA030CA0F8B4
:104C500020C0038C1A4392B20284704704238B4015
:104C60008A40B0F820C01FFA8CFC2CEA030CA0F894
:104C700020C0038C1A4392B20284704701238B40F8
:104C80009446028C82B092B222EA0302082914BF31
:104C900000230123002908BF43F00103019002848F
:104CA0006BB110F11802490850584FF68F7300EAA3
:104CB00003035350535843EA0C03535010E0019838
:104CC0000A1F92B218305208815848F6FF7301EA61
:104CD0000303835081584FEA0C239BB21943815040
:104CE00002B0704721B103889BB243F0020304E095
:104CF000038823F002039B059B0D03807047C04689
:104D000021B103889BB243F0040304E0038823F03D
:104D100004039B059B0D03807047C04621B1838827
:104D20009BB243F0800304E0838823F080031B04DC
:104D30001B0C83807047C046038823F008039B0543
:104D40009B0D038003889BB2194301807047C046C6
:104D5000838823F070031B041B0C838083889BB221
:104D6000194381807047C046038923F007031B0461
:104D70001B0C038103899BB2194301817047C04614
:104D8000038923F080031B041B0C038103899BB25E
:104D9000194301817047C0468184704781857047FF
:104DA000818670470187704781877047A0F840105F
:104DB0007047C046038B23F00C031B041B0C0383BA
:104DC000038B9BB2194301837047C046038B23F4C6
:104DD00040631B041B0C0383038B9BB243EA012338
:104DE0009BB203837047C046838B23F00C031B04E4
:104DF0001B0C8383838B9BB2194381837047C0460E
:104E0000838B23F440631B041B0C8383838B9BB233
:104E100043EA01239BB283837047C0460388DBB219
:104E2000038003889BB2194301807047808E80B253
:104E30007047C046008F80B27047C046808F80B2F6
:104E40007047C046B0F8400080B27047808C80B296
:104E50007047C046008D80B27047C046038A194231
:104E60000CBF0020012070476FEA010189B2018266
:104E70007047C046038A828919420CBF0020012076
:104E800011420CBF002000F0010070476FEA0101E1
:104E900089B201827047C04600B52F4B83B098425B
:104EA000019037D00BD8A3F50063984226D003F5C4
:104EB0008063984228D0B0F1804F4AD118E0274B48
:104EC000984233D004D8A3F58063984241D127E0BB
:104ED000234B984204D003F50063984239D12EE069
:104EE0004FF400600121FEF733FF4FF400602DE026
:104EF00001200121FEF73AFF01201CE002200121E0
:104F0000FEF734FF022016E004200121FEF72EFFF9
:104F1000042010E008200121FEF728FF08200AE005
:104F200010200121FEF722FF102004E020200121A3
:104F3000FEF71CFF20200021FEF718FF09E04FF4C8
:104F400000500121FEF704FF4FF400500021FEF74E
:104F5000FFFE03B000BDC046000C0040001400403E
:104F6000002C01404FF4165303604FF00003838080
:104F7000C38003814FF00C0343814FF00003838112
:104F80007047C046B1F800C04B88028A43EA0C0360
:104F9000B1F804C0C98822F4706243EA0C03120419
:104FA0000B43120C9BB21343038270474FF0000374
:104FB000038043808380C3807047C04621B18389CA
:104FC0009BB243F4005304E0838923F400531B0491
:104FD0001B0C83817047C046CBB24FEA531C01F0D3
:104FE0001F01012382B013FA01F1BCF1010F0190FE
:104FF00001D10C3005E0BCF1020F01D1103000E00E
:10500000143012B103680B4302E0036823EA010382
:10501000036002B07047C04622B1838A9BB241EA66
:10502000030303E0838A9BB223EA01038382704770
:10503000038A23F00F031B041B0C0382038A9BB219
:105040000B4303827047C046838923F400631B042B
:105050001B0C838183899BB2194381817047C046B1
:1050600021B183899BB243F0020304E0838923F0DA
:1050700002031B041B0C83817047C046038A23F084
:1050800020031B041B0C0382038A9BB21943018279
:105090007047C04621B1038A9BB243F4804304E0C9
:1050A000038A23F480431B041B0C03827047C04611
:1050B000C905C90D818070478088C005C00D704743
:1050C00083899BB243F0010383817047038BDBB27A
:1050D0000383038B9BB243EA012303837047C046DB
:1050E000038B03F47F430383038B9BB20B43038344
:1050F0007047C04621B1838A9BB243F0200304E08D
:10510000838A23F020031B041B0C83827047C04654
:1051100021B1838A9BB243F0100304E0838A23F019
:1051200010031B041B0C83827047C04621B1838A85
:105130009BB243F0080304E0838A23F008031B04B6
:105140001B0C83827047C046838A23F004031B0430
:105150001B0C8382838A9BB2194381827047C046AD
:1051600021B1838A9BB243F0020304E0838A23F0D7
:1051700002031B041B0C83827047C046038819423C
:105180000CBF0020012070476FEA010189B2018045
:105190007047C046CBB24FEA531C01F01F020123F7
:1051A00013FA02F2BCF1010F08BF838904D0BCF1ED
:1051B000020F0CBF038A838A9BB202EA030C0B0A1C
:1051C00001229A4003889BB21A420CBF00200120A2
:1051D000BCF1000F0CBF002000F001007047C0467A
:1051E000090A01238B406FEA03039BB203807047D7
:1051F000038ACA8823F440531B041B0C1343038205
:10520000828970B50B890E46898822F4B0520B430F
:10521000718922F00C020B431204120C9BB213434F
:105220008381838AB28923F440731B041B0C88B0EA
:105230001343054683820190044603A8FEF702FD4E
:10524000104B11489D420CBF069B059B03EB83014D
:10525000336801EB81019B00B1FBF3F1A1FB00235B
:1052600064224FEA531C0CFB121212013232A2FBD1
:1052700000235B0903F00F0343EA0C139BB22B815D
:1052800008B070BD003801401F85EB5100B5224BBE
:1052900083B0984201902BD008D8A3F500639842C0
:1052A00016D003F58063984234D119E01B4B984225
:1052B00026D003F5684398422CD101214FF4804059
:1052C000FEF746FD4FF480400021FEF741FD21E04E
:1052D0004FF400300121FEF749FD4FF4003016E095
:1052E0004FF480200121FEF741FD4FF480200EE0B5
:1052F0004FF400200121FEF739FD4FF4002006E0B5
:105300004FF480100121FEF731FD4FF48010002191
:10531000FEF72CFD03B000BD004C004000500040E3
:1053200030BF704720BF704740BF7047BFF36F8FDB
:105330007047BFF34F8F7047BFF35F8F704701DF38
:105340007047EFF31480704780F31488BFF36F8FBA
:105350007047EFF30980704780F309887047EFF3D7
:105360000880704780F30888704772B6704762B64D
:10537000704771B6704761B6704780F31188704707
:10538000EFF31280704740BA704700BA70470000D0
:105390002DF0070168468D4601B500220C49DFF863
:1053A00034C00D4802E083588B50043201EB0203F5
:1053B0006345F8D3094B0A49002201E043F8042B66
:1053C0008B42FBD3FAF79CFFBDE80140854670474E
:1053D00000000020F402002078860008F40200207B
:1053E0001014002083238821A31FDD1D341C9B1A69
:1053F0001C19B3175F161E15EE13D012C111C4107D
:10540000D10FEE0E1A0E4D0D8E0CD90B2F0B8F0AED
:10541000F7096809E0086108E90777070C07A6069D
:105420004706ED0597054705FB04B40470043004F6
:10543000F403BB03860352032303F602CC02A30248
:105440007E025A0238021802FA01DE010000EE0262
:10545000C410D10FEE0E1A0E4D0D8E0CD90B2F0B62
:105460008F0AF7096809E0086108E90777070C0760
:10547000A6064706ED0597054705FB04B40470042E
:105480008403D4306A18080008010A010C010D01D8
:105490000F011101130114010000080010010F0198
:1054A0000D010B01090108010601040400000F00B1
:1054B00008010D01110194018000110114041E0165
:1054C0000001140100019400940014010001140172
:1054D00019040002000017001001800090009000E5
:1054E000100110019700940097009400100400012F
:1054F000000014009000A8011E01E801AC00EC00BF
:105500000001000014000801240162041E041E02B0
:105510000001000010009700B200F2008000B2000D
:10552000F200000100002000090121041E02000118
:10553000000014001701B00061020001000010001B
:10554000170123026302230263020001000014001A
:1055500090006C041E04000014009A0061042104F1
:105560000001000010008100E1009A00E100A100AC
:105570000001000010001A016A0100010000100083
:105580009A00AA00EA000001000010009A00AA0098
:10559000EA008000AA00EA00000100000800940070
:1055A000A50017021402A500170214020001000052
:1055B000090000040E0280008201820182010004C1
:1055C000000010009C005204000100000400810053
:1055D00074043404880448040001000001009A00A7
:1055E0006A042A04740434047E043E0488044804D3
:1055F000920452049C045C04A6046604B004700483
:10560000000100000800810068042104000100007E
:10561000040099018000990180009901800099019E
:105620008000000010001501720272027202000177
:10563000000008009A008100E80022032102000116
:105640000000070081001401800081001301800028
:105650008100120180008100110180008100100191
:1056600080000000000000000102030401020304A6
:10567000060708090204060801000100010000FDF8
:1056800000FE00FE00FF000300FF00030100009683
:1056900032FA32FA00FF00030002007F007F00FFB1
:1056A00001000100010001000001000700FF007F70
:1056B00000FF007F01000100010001000100010066
:1056C00001000100010001000100010001000100D2
:1056D00001000100010001000100010001000100C2
:1056E00001000100010001000100010001000100B2
:1056F00001000100010001000100010001000100A2
:105700000100010001000100010001000100010091
:105710000100010001000100010000FF00FF00FF87
:1057200000FF010001000100010001000200010171
:105730000101020002000101010102000101010159
:105740000200020001010200020001010101010149
:105750000101020002000200020002000200010238
:105760000002000200020002000200020002000229
:105770000002000200020002000200020001010219
:10578000000200010200007312C801000000FF03C4
:1057900000503CBEFF030224240000000000000073
:1057A00064000A0370300C0080841E0000E10000D9
:1057B00080841E00000102030405060708090A0B85
:1057C0000C0D0E0F101112131415161718191A1BA1
:1057D0001C1D1E1F202122232425262728292A2A92
:1057E0002B2C2D2E2F303132333435363738393A91
:1057F0003B3C3D3E3F404142434445464748494A81
:105800004B4C4D4E4F505152535455565758595A70
:105810005B5C5D5E5F606162636465666768696A60
:105820006B6C6D6E6F707172737475767778797A50
:105830007B7C7D7E7F7F808182838485868788894B
:105840008A8B8C8D8E8F9091929394959697989940
:105850009A9B9C9D9E9FA0A1A2A3A4A5A6A7A8A930
:10586000AAABACADAEAFB0B1B2B3B4B5B6B7B8B920
:10587000BABBBCBDBEBFC0C1C2C3C4C5C6C7C8C910
:10588000CACBCCCDCECFD0D1D2D3D3D4D5D6D7D806
:10589000D9DADBDCDDDEDFE0E1E2E3E4E5E6E7E800
:1058A000E9EAEBECEDEEEFF0F1F2F3F4F5F6F7F8F0
:1058B000F9FAFBFC0A0000000B0000000C000000DD
:1058C0000D000000000000000100000002000000C8
:1058D00003000000040000000500000006000000B6
:1058E000070000000E0000000F000000080000008C
:1058F00009000000868400089A840008AE8400082D
:10590000D6840008F2840008048500081485000885
:1059100026850008328500083E8500084E8500086F
:105920005885000864850008748500087E85000895
:105930008A8500089C850008B0850008C28500089B
:10594000CC850008DC850008048600081086000865
:105950002486000832860008428600080100000004
:0C596000E8FFFFEAFFFFECFFFF00000083
:00000001FF
