:020000040800F2
:10000000000001208546000835010008370100087E
:10001000390100083B0100083D0100080000000014
:100020000000000000000000000000004101000886
:100030003F010008000000004301000845010008DE
:10004000490100084B0100084D0100084F0100085C
:10005000510100085301000855010008570100082C
:10006000590100085B0100085D0100080000000064
:100070000000000000000000000000000000000080
:1000800000000000000000006D0100087101000880
:100090007301000875010008770100087901000864
:1000A0007B0100087D0100087F0100088101000834
:1000B0008301000825020008270200082902000821
:1000C0002B0200082D0200082F0200083102000850
:1000D0003302000835020008390200083B0200081C
:1000E0003F020008410200084302000845020008E0
:1000F00047020008490200084B0200084D020008B0
:100100004F0200085102000853020008550200087F
:1001100057020008590200085D0200085F0200084B
:100120006102000863020008650200086702000817
:040130005FF8000074
:100134007047FEE7FEE7FEE7FEE77047704770474B
:1001440001F048BB7047704770477047704770476D
:1001540070477047704770477047704770477047E3
:10016400704770477047704700F0BBB870477047DE
:10017400704770477047704770477047704738B58D
:100184004FF08040102104F092F8002841D04FF045
:100194008040102104F096F800F0A3F84FF080405E
:1001A400002103F090FF1B4B1B4C19884FF080403B
:1001B40089B203F092FF2388580701D100F07EF83A
:1001C4002388990701D100F089F82388DA0607D13A
:1001D40000F07CF801F0ECFD00F0F8FE0F4B98778E
:1001E4002588C5F3090585B91020294600F006FFC6
:1001F4000820294600F002FF074B9B785B0701D1DA
:1002040000F030F8A3780133A370238801339BB244
:10021400238038BD28010020F40200200F050020AF
:100224007047704770477047704770477047704712
:1002340000F04EB8704700F04FB8704770477047F1
:1002440070477047704770477047704770477047F2
:100254007047704700F03EB870477047704770476A
:100264007047704708B501F0CBFA124A82F83200A1
:1002740092F832306E2B104B08D892F83220822A32
:1002840004D91A78132A03D8013200E000221A7024
:100294001B78142B0CD1FF2001F020FD162001F057
:1002A40029FD01F033FD18B9BDE8084001F05CBD3B
:1002B40008BD00BF0F050020F8020020024A137891
:1002C4000133DBB2137070477806002001F0DCBF05
:1002D40001F07EBC01F0D4BB01F0ECBB704701F02F
:1002E40079BA01F00DBB7047704700BF08B54FF4F1
:1002F400614100F0E9F828B1034B00221A705A80DA
:100304001A71012008BD00BFFE02002000F0E4B80D
:1003140007B5C3B2C0F307208DF80400C0438DF8BD
:100324000230DB43FF228DF800208DF805005522B2
:10033400684606218DF803308DF8012000F0CDF8D1
:10034400831F5842584103B05DF804FB70B52C4C30
:100354002078012853D0217905290AD8601D084442
:10036400C1F1060100F0C8F8431C1EBF2379C01870
:1003740020712279012A23D9224900230846934275
:100384000CDA11F8015BFF2D05D1551E9D4202DDEB
:100394000D78552D01D00133F1E78BB1934205D18E
:1003A400591E65186D79FF2D08BF0B4619469142F9
:1003B40004DA465CC51A6E540131F8E7D31A237186
:1003C40022790F4B062A19D15A79FF2A13D19A7927
:1003D400552A10D11A7AD979D243D2B291420AD18C
:1003E4009A7A587AD243D2B2904201BF01EB0021EB
:1003F400012259801A70002363712371207870BD23
:10040400FE02002003030020024B00221A705888C9
:10041400704700BFFE02002001284FF4807103489A
:1004240001D102F09CBC02F098BC00BF0010014056
:1004340038B5234C0023A3810225A08978BBFFF79C
:10044400EBFF022001F09DF9012001F0A7FA4FF41F
:1004540080711C4802F083FC0A2001F092F901200B
:10046400212101F0C9FA0120212101F0C5FA40F24D
:10047400311001F086F9012001F09AFA58B10120F7
:1004840001F096FA0028FAD0012001F0A1FA2128FF
:10049400F1D10123A381012D01D00125CDE7322023
:1004A40001F06FF90020FFF7B7FF022001F069F9AE
:1004B40004484FF4807102F052FCA08938BD00BF9B
:1004C400FE0200200010014008B501204FF46141F4
:1004D40000F0E6FE012008BD704770B505460E46E3
:1004E4000446631BB34205DA012014F8011B01F032
:1004F40083FAF6E7002070BD70B5064601200C466D
:1005040001F056FA90B13546012001F051FA002865
:10051400FAD0012001F05CFA05F8010BAB1BA342F1
:10052400F2DB012C2046B8BF012070BD4FF0FF3034
:1005340070BD000010B5324C002222706270237826
:10054400FF20DBB2591CC9B2234421709870237870
:10055400DBB2591CC9B2234421709870237829480E
:10056400DBB2591CC9B221702344FE21997023784F
:10057400DBB2591CC9B22170234404219970237839
:10058400DBB2591CC9B2217023440321997023782A
:10059400DBB2591CC9B22170234418219970237805
:1005A400DBB2591CC9B2234421709A7023784FF4EA
:1005B4000071DBB25A1CD2B222702344E2229A7038
:1005C40002F0C2FBD0B91048202102F0C8FB0D484C
:1005D4004FF4007102F0C1FB63780C48DBB25A1C83
:1005E400D2B262701C44A17803F086FFBDE81040CB
:1005F400064840F22661012203F023BF10BD00BF6C
:100604000C03002000100140000C014000380140A0
:1006140010B50124184B93F85E22A2422AD993F80C
:100624000201164A01382044C0B2125C022A0ED1DB
:1006340003F20312115B03F203231728195203D8A0
:100644008000043002F056F80134E4B20FE01A19C5
:1006540092F803211918D2B2172881F8032206D878
:10066400800003F203130430195B02F043F80134F1
:10067400E4B2CFE710BD00BF0C030020000000204F
:10068400F0B5184A184992F80231C85C38B392F8A8
:100694005E52C818284410F8020C02281FD001200A
:1006A400C4B2AC4219D25A2B19D8161801EB430E16
:1006B40096F803419EF85AE01F46A6450FD80A4C07
:1006C40096F8036104EB470494F85B400133B442A9
:1006D40000F10100DBB2E3D201E00020F0BD08200C
:1006E400F0BD00BF0C0300200000002070B53B4C9F
:1006F40094F85F32012B07D094F86032FE2B6BD054
:1007040094F81332012B67D994F86132FF26184309
:1007140094F8063294F862220233D2B2511CC9B260
:10072400224484F8621282F8636294F862220344D9
:10073400DB43D2B2511CC9B2224484F8621282F85B
:10074400636294F86222DBB2D2B2511CC9B284F85B
:10075400621294F806122244C9B282F8631294F821
:1007640062221E4DD2B2511CC9B284F862122244D4
:10077400022182F8631294F86222D2B2511CC9B2E7
:10078400224484F8621282F8630294F86222D2B29C
:10079400511CC9B2224484F8621282F8633294F87C
:1007A4006333ABB9012685F8636395F864130C4889
:1007B400CBB29919C9B285F864132B4493F8631228
:1007C40003F09AFE064840F22661324603F039FEF1
:1007D40094F86333002BFBD170BD00BF0C030020E1
:1007E4000048004038B50025414CEBB294F85E2235
:1007F400013A93427ADA94F8022113441A2B4DD029
:1008040013DC182B2ED03CDC042B6DD194F807425A
:10081400384B0134B3FBF4F40020214600F040FDD2
:100824000220214600F03CFD5EE0512B45D010DC57
:100834001C2B59D1B4F81F3203F01F0284F869232A
:10084400C3F34412C3F3842384F86A2384F86B3318
:100854004AE0522B43D0532B46D1B4F85602FFF74B
:1008640057FD41E094F81B0200F0BEFF94F81B32E0
:10087400012B01D101F02AFA94F81B3284F8653374
:1008840032E094F81C02012100F0B8FB94F81C0239
:100894000021C043C0B200F0B1FB25E0B4F81D3222
:1008A40003F01F0284F86623C3F34412C3F38423C2
:1008B40084F8672384F8683316E094F8550201F04D
:1008C4000DFA01F023FA18B194F85532FE2B0BD12E
:1008D40094F8540201F00EFA01F046FA04E094F898
:1008E40055320BB901F05CFA01357DE738BD00BF24
:1008F4000C03002080841E00F8B5C84C6FF01F0262
:1009040084F81D220322C82384F81E227C2284F842
:10091400063284F8202200231F2284F8663384F8E8
:100924001F3284F8672384F8683384F8693384F8C1
:100934006A3384F86B23FFF77BFDA4F85B0294F819
:1009440060320020002284F86C2394F86D5394F8EC
:100954006E23B249954206D191F86C23642AF4D9E6
:1009640081F86032EBE791F86D33DBB25A1CD2B2F6
:1009740081F86D230B4493F86F33DBB2FF2B02D164
:100984000130C0B2DEE70128DBD991F8062281F8F4
:100994006032934201D0FE2BD1D1002284F86C2323
:1009A40094F86D0394F86E139C4A884204D192F82B
:1009B4006C23642AF4D9C2E792F86D13C9B2481CB7
:1009C400C0B282F86D03114491F86F530021EDB267
:1009D400AE1EF6B282F85E6282F86C1394F86D0370
:1009E40094F86E238D49904204D191F86C23642AC3
:1009F400F4D9A4E791F86D23D2B2501CC0B281F8A7
:100A04006D030A4492F86F23D2B281F85F222A441C
:100A14001344DFB200225FFA82FE764520DB002316
:100A240084F86C3394F86D0394F86E337B499842E0
:100A340004D191F86C33642BF4D980E791F86D03F9
:100A44000132C0B2431CDBB281F86D33084490F824
:100A54006F037144C0B23B1881F80301DFB2DAE7D7
:100A640094F80331002684F8023194F80822F3B292
:100A740093426A4906F1010603D2022000F097FE70
:100A8400F3E7FF2F91F85F2209D091F86D33012A23
:100A9400DBB281F86E333FF452AF102093E2922A16
:100AA40040F0BF80002381F86F3481F870343B46F6
:100AB4000222E91E8A4280F2B480A01890F80361F1
:100AC40094F806025549864240F0A08091F8060247
:100AD400FF2B81F860024FF0020081F85F0202F1FF
:100AE400010002F1FF3208440A4490F8030192F82D
:100AF400032181F80201D2B281F8042100F0908030
:100B04000022002184F86C1394F8705494F86F1444
:100B140042488D4204D190F86C136429F4D90EE74D
:100B240090F86F14C9B24D1CEDB280F86F540144B3
:100B340091F87114C9B2FF2902D10132D2B2E0E7AF
:100B4400012A4FF00002DCD99942D9D180F86C23F4
:100B540094F8701494F86F34304A994204D192F89E
:100B64006C33642BF4D9EAE692F86F34DBB2591C87
:100B7400C9B282F86F14134493F871140023023934
:100B8400C9B282F86C3394F8702494F86F34234813
:100B94009A4204D190F86C33642BF4D9CFE690F8E0
:100BA4006F240027D3B25A1CD2B280F86F240344B6
:100BB40093F87134FBB29942184E4FF0000519DBDB
:100BC40086F86C5396F8702496F86F3413489A425A
:100BD40004D190F86C33642BF4D9B0E690F86F2408
:100BE4000137D3B25A1CD2B280F86F24034493F86D
:100BF4007134DFE796F80832EAB29A4205F101054A
:100C040003D2022000F0D3FDF4E70425A31893F8DF
:100C140003310332DBB2D2B24BE700BF0C03002036
:100C2400042594F85F1201F17D03DBB2012B29D86E
:100C3400BF4B022693F80401C0B2EB1E9E4221DA98
:100C4400A31993F8032194F806329A4216D101238A
:100C54009A198342D2B209D8224492F80321E518A2
:100C6400D2B2013385F80321DBB2F1E701F07F0151
:100C7400013084F85F1284F85E0203E0421CB3186A
:100C8400DEB2DAE794F85F22A94B032A0CD1FFF70E
:100C9400F7FC0546FFF72AFD082D3FF450AEFFF799
:100CA400B7FCFFF79FFD4AE6022A40F04F8193F814
:100CB4006022FE2A3FF443AE93F81322002A3FF445
:100CC4003EAE93F8047193F8042193F8065293F816
:100CD40062120232C9B201F1010E5FFA8EFE83F88C
:100CE40062E219444FF0FF0E81F863E293F8621256
:100CF400D2B2C9B201F1010C5FFA8CFC194483F839
:100D040062C281F863E293F8621293F86102C9B295
:100D140001F1010C5FFA8CFC83F862C293F806C2FD
:100D240019445FFA8CFC81F863C293F8621205449B
:100D3400C9B201F1010C5FFA8CFC194483F862C258
:100D440081F8632293F8621293F80261C9B201F147
:100D5400010C5FFA8CFC194483F862C281F86302C7
:100D640019781544C9B201F1010C5FFA8CFC1944DD
:100D740083F800C081F802E019783744C9B201F160
:100D8400010C5FFA8CFC194483F800C081F802E07E
:100D94001978013FC9B201F1010E5FFA8EFE83F8A2
:100DA40000E093F806E219445FFA8EFE81F802E04F
:100DB4001978FFB2C9B201F1010E5FFA8EFE19442F
:100DC40083F800E08A701A78EDB2D2B2511CC9B22D
:100DD400197013449870BE4259D8572E05D1FFF7A5
:100DE400B5FAC0B284F85A0205E0552E03D1FFF7D4
:100DF4000BFBA4F858024F4B9B5D022B2DD1BE4236
:100E04002BD294F862124C4BC9B29B5B481CDAB2E9
:100E1400C0B2214484F8620281F8632221781B0A5B
:100E2400C9B2481CC0B2214420708A7094F862127E
:100E34000136C9B2481CC0B2214484F8620281F868
:100E440063322178F6B2C9B2481CC0B22144207082
:100E54008B7013442B44DDB216E0A31993F80332CC
:100E640094F86222DBB2D2B2511CC9B2224484F893
:100E7400621282F863322278D2B2511CC9B222447F
:100E8400217093702B44DDB20136F6B2A3E7EB4335
:100E940094F86222DBB2D2B2511CC9B2224484F863
:100EA400621282F8633222782148D2B2511CC9B24C
:100EB40022442170937094F86333ABB9012580F810
:100EC400635390F86413CBB25919C9B280F8641310
:100ED400034493F86312194803F00EFB174840F2D9
:100EE40026612A4603F0ADFA15484FF4007101F06B
:100EF4002BFFC0B91348202101F031FF10484FF4F3
:100F0400007101F02AFF63780F48DBB25A1CD2B299
:100F140062702344997803F0EFFA0B4840F226619B
:100F2400012203F08EFA94F86333002BFBD106E51B
:100F34000C030020000000200F05002000480040A2
:100F440000100140000C0140003801400D2A24D15A
:100F540093F80521F02A7FF4F2AC93F80621552A80
:100F64007FF4EDAC93F807210F2A7FF4E8AC93F8F3
:100F74000821AA2A7FF4E3AC93F85E22062A7FF4C0
:100F8400DEAC93F8020159283FF6D9AC800093F8FF
:100F94000411043001F0AEFBD1E4012A09D193F825
:100FA4006022FE2A03D193F8060200F0EAFB002037
:100FB40009E0063A012A05D80020FFF797FB02F062
:100FC40015F8BCE44020FFF791FBB8E410B54FF4EA
:100FD4008051094801F0AFFE4FF4006110F1FF3475
:100FE400054818BF012401F0A6FE01281CBF44F0E7
:100FF4000204E4B2204610BD000801400129F8B5FE
:1010040000F0010300F0020700F0040600F00805F8
:1010140000F010041ED123B11E484FF4004101F02A
:101024009EFE27B11C484FF4805101F098FE1EB17A
:101034001848402101F093FE25B116484FF40051A1
:1010440001F08DFE2CB3BDE8F84012484FF4804106
:1010540001F085BE23B10F484FF4004101F07DFE3D
:1010640027B10D484FF4805101F077FE1EB10948B5
:10107400402101F072FE25B106484FF4005101F001
:101084006CFE34B1BDE8F84002484FF4804101F0F1
:1010940064BEF8BD00100140000C0140012808B5F1
:1010A40003D111484FF4004115E0022803D10F4841
:1010B4004FF480510FE0042802D10B4840210AE08C
:1010C400082803D108484FF4005104E0102809D13E
:1010D40005484FF4804101F037FE10F1FF3018BF8E
:1010E400012008BD002008BD00100140000C014093
:1010F40070470020704700BF70B588B01E4C01A82F
:1011040002F07FFD04A802F085FD204602F0F2FB08
:1011140047230025ADF8043020464FF4FA6301A9B3
:10112400ADF80830ADF80650ADF80A508DF80C5003
:1011340002F044FC6023ADF81030BDF808300126FD
:10114400F340ADF816302046022304A9ADF8183058
:10115400ADF81260ADF8145002F00EFD2046294699
:1011640002F093FE2046314602F06FFD20463146E0
:1011740002F077FD08B070BD0008004010B588B0DB
:1011840001A802F03EFD04A802F044FD4FF08040A7
:1011940002F0B0FB4FF6FF73002401A94FF080402A
:1011A400ADF80830ADF80440ADF80A40ADF806409B
:1011B40002F004FC01224FF0804040F2D22102F000
:1011C400C5FD104B04A91B884FF08040ADF81630C4
:1011D400ADF81040ADF81240ADF8184002F0CCFC68
:1011E40021464FF0804002F050FE01224FF0804033
:1011F400102102F044FD4FF08040012102F025FD52
:1012040008B010BD2801002008B542F2283002F0D1
:1012140001FBBDE80840012002F016BB10B501F047
:10122400F1FF4FF4803002F00BF802F059F9012875
:1012340004460DD046F63D60012102F0FBF8174844
:10124400012102F003F9BDE81040012001F083BF41
:10125400102001F095FA022001F07AFA002002F041
:101264003DF8002002F04EF84FF4806002F040F8A0
:101274004FF480304FF4E01102F00EF8204602F0F3
:1012840015F8392002F018F90028FAD0022002F0EB
:1012940013F802F01BF80828FBD1CBE70F40141811
:1012A40030B50D46044685B0684603F09DF800232A
:1012B400ADF80430ADF80630ADF80830ADF80C30B8
:1012C4000C230095ADF80A3084B91E4B1E485D60AE
:1012D40002F0FCFF1C48694603F042F81A4840F249
:1012E4002551012203F0ADF8174825E0012C11D156
:1012F400144B16489D6002F0E9FF1448694603F058
:101304002FF8124840F22551224603F09AF80F486C
:10131400214612E0022C12D10A4B0D48DD6002F086
:10132400D5FF0B48694603F01BF8094840F22551E4
:10133400012203F086F80648012103F076F805B08F
:1013440030BD00BF2801002000380140005000409B
:101354000048004010B9074B58687047012802D173
:10136400044B98687047022806BF024BD8680020D7
:10137400704700BF2801002030B587B001A801F0F4
:1013840043F8012400254FF460232D4801A9039359
:1013940001958DF808508DF8094004958DF8144096
:1013A40001F00EF8274801A901F00AF807232448A0
:1013B4000A21224601F07CF821484FF408712A469C
:1013C40001F03DF807231F480421224601F070F87C
:1013D4002A461C484FF4087101F031F81848214698
:1013E40001F01BF81748214601F017F8144801F0E2
:1013F4002FF8134801F031F80028FAD1114801F010
:1014040027F8104801F029F80028FAD10C4801F017
:1014140028F80B4801F02AF80028FAD1094801F00D
:1014240020F8084801F022F80028FAD104480121E4
:1014340001F020F80348012101F01CF807B030BD89
:10144400002401400028014030B5194C87B02046E3
:101454004FF4006101F081FC20464FF4806101F0FB
:101464007CFC4FF48272ADF80620124D0222002358
:10147400ADF80A204FF40072ADF80430ADF808302E
:101484000124ADF80E20ADF81230082207232846B7
:1014940001A9ADF81020ADF81430ADF80C4002F0FD
:1014A4007FF82846214602F0FFF807B030BD00BFA0
:1014B40000100140003800402DE9F743554E01A8C3
:1014C400042501F030FC03244FF010094FF480731D
:1014D400304601A9ADF804308DF806408DF8079028
:1014E40001F0D3FB4FF4806330460DEB0501002778
:1014F400ADF804308DF8075001F0C7FBFF233046E8
:101504000DEB05014FF01808ADF804308DF80770A5
:1015140001F0BBFB4FF4007330460DEB0501ADF851
:1015240004308DF806408DF8078001F0AEFB4FF4CF
:10153400C053ADF80430304648230DEB05018DF857
:10154400073001F0A2FB41F2241306F58066304611
:101554000DEB0501ADF804308DF806408DF80790C9
:1015640001F093FB4FF4086330460DEB0501ADF831
:1015740004308DF8075001F088FB4EF2406330468A
:101584000DEB0501ADF804308DF806408DF80780A9
:1015940001F07BFB30460DEB0501ADF804408DF8FE
:1015A400077001F072FB4EF6C07306F58066304694
:1015B4000DEB0501ADF804308DF806408DF8079069
:1015C40001F063FB4FF4805330460DEB0501ADF899
:1015D40004308DF806408DF8078001F056FB3F2358
:1015E40030460DEB0501ADF804308DF8077001F0BD
:1015F4004CFB0DEB05010848ADF804508DF807507D
:1016040001F043FB2846012101F0CEFB03B0BDE805
:10161400F08300BF000801400014014037B50021E9
:101624004FF0006001F0D8FC4FF4C06001F02EFCD4
:1016340001240025252301A88DF804308DF80550D8
:101644008DF806408DF8074001F02AFC35238DF80B
:10165400043001A802238DF806308DF805508DF86A
:10166400074001F01DFC27238DF8043001A8032353
:101674008DF806308DF805508DF8074001F010FC08
:101684001C2301A88DF804308DF805408DF8065010
:101694008DF8074001F004FC03B030BD10B51E4CBA
:1016A40002F0DBFFFFF7BAFDFFF7B8FFFFF704FF17
:1016B40001F072F861680020FFF7F2FD0020FEF7E8
:1016C40015FEE168154C0220FFF7EAFDFFF754FE12
:1016D400FFF79AFDFFF752FDFFF7B6FEFFF70CFD8B
:1016E40020464FF4007101F03AFB0D48202101F02F
:1016F40034FB20464FF4806101F02FFB20464FF469
:10170400006101F02AFB02F0AAFF00F0BDFCBDE875
:10171400104000F039BD00BF280100200010014036
:10172400000C014010B57B2001F0C6FE01281BD03F
:101734007A2001F0C1FE012818D07C2001F0BCFE03
:10174400012815D07D2001F0B7FE012812D07E209B
:1017540001F0B2FE01280FD07F2001F0ADFE012878
:1017640014BF0024062408E0022406E0044604E032
:10177400032402E0042400E0052401F0C8FE20460E
:1017840010BD10B50446012002F04AF8064B1C6057
:101794001C68002CFCD16FF0010002F041F82046D7
:1017A400BDE8104002F03CB8880B00207047084B9D
:1017B40010B55A680024844206D000210A4401313D
:1017C4000A29FBD10134F6E75A609A6010BD00BFC4
:1017D400880B0020034B1A6812B11A68013A1A6088
:1017E400704700BF880B002001284FF48071034824
:1017F40001D101F0B2BA01F0B2BA00BF000C01404D
:1018040008B5002000F074F8024BC0F30F10185C08
:1018140008BD00BF3E010020400000F1006000F55B
:10182400FE200088704770B5440004F1006404F59C
:10183400FE242388ADF5816D8B420D463ED0B0F574
:10184400007F3BD200235A0002F1006202F5FE221F
:10185400128802AE26F813200133B3F5007FF2D1CB
:1018640026F8105000F098FF352000F0E1FF25B174
:101874004FF6FF7322889A4206D12046294601F08A
:10188400A7F88DF8070017E00E4801F006F80D4C94
:101894008DF8070004F17843A3F5FE23F15A4FF6BF
:1018A400FF73994204D0204601F092F88DF80700A6
:1018B400054B02349C42EDD100F07AFF0DF5816DA9
:1018C40070BD00BF00F0070800F4070807B500F07A
:1018D40063FF352000F0ACFF044800F0DEFF8DF814
:1018E400070000F065FF03B05DF804FB00F0070893
:1018F400024B33F8100080B2704700BF940B0020F5
:1019040070B5214C214894F8205000F01CFEEDB233
:1019140024F815001E4894F8205000F014FE0835F1
:1019240024F8150094F820300133DBB284F8203019
:1019340094F82030082B18D094F82030154DDBB2E1
:1019440055F823101148C9B20122072300F0B0FD55
:1019540094F820300E48083355F823100122C9B2F8
:101964000723BDE8704000F0A3BD002384F82030B5
:101974005A00013334F8131007483332C1F38D0190
:101984000F2B1152F4D1D7E7940B0020002401400F
:1019940000280140400200200F050020012801BF5B
:1019A400024B00221A805A80704700BFB60B0020F9
:1019B400012808D1054A508883B2108880B2181AC9
:1019C40018BF01207047FF20704700BFB60B0020EE
:1019D400012801BF074B5A88013292B201BF5A80D5
:1019E4005A88C2F3090203EB420306BF9888C0B2C7
:1019F400FF207047B60B002010B50C46E8B91B4811
:101A0400202101F0ACF91A484FF4007101F0A5F956
:101A14001848214602F070FD1648402102F0C7FD27
:101A24000028F9D012484FF4007101F098F9BDE88C
:101A340010400E48202101F090B9012809D10E4828
:101A440002F05AFD0C48402102F0B1FD0028F9D003
:101A540010BD022808D1094802F04EFD0748402174
:101A640002F0A5FD0028F9D010BD00BF000C014014
:101A74000010014000380140005000400048004080
:101A840008B50A4840F2255102F09BFD60B10748B1
:101A940002F036FD064A138801339BB21380C3F368
:101AA400090302EB4303988008BD00BF00500040C7
:101AB400B60B0020F8B5364840F2255102F081FDFE
:101AC40004463348002C41D002F01AFD314D324A0D
:101AD400324913782C780E78314FC0B2F6B2B8552B
:101AE400304EE4B23055304CDBB2E0542B78013345
:101AF400DBB22B700B780133DBB20B70137801333C
:101B0400DBB21370294B93F80438002B3FD02848DC
:101B14004FF4007101F018F9002838D1254820212C
:101B240001F01DF922484FF4007101F016F9224921
:101B340022480B78DBB25A1CD2B20A70E15C02F084
:101B4400DBFC1E4840F2266101221CE040F22661C3
:101B540002F037FDD8B11A4A1A4B11781B78994212
:101B64000BD013780A48DBB2591CC9B21170164A5B
:101B7400D15CBDE8F84002F0BFBC40F226612246C9
:101B8400124B03481C70BDE8F84002F05ABCF8BD83
:101B9400004800407A0600200C030020830900203E
:101BA400840900207B0600200E030020B60B0020D1
:101BB40000100140000C01400D03002000380140DA
:101BC400700600206E0500206F0500206F060020BF
:101BD40038B5304840F2255102F0F3FC04462D4854
:101BE400002C2ED002F08CFC2B4A2C4913780C7854
:101BF4002B4DC0B2E4B228552A4DDBB2E8540B7821
:101C04000133DBB20B7013780133DBB21370264B54
:101C14001A78002A3DD101221A70244B244C1B78D7
:101C2400934205D123782348DBB2E95C02F064FCDB
:101C3400237820480133DBB2237040F2266101226D
:101C440023E040F2266102F0BCFC10B31A4A1B4B9D
:101C540011781B7899420BD013780E48DBB2591CCB
:101C6400C9B21170164AD15CBDE8384002F044BCD8
:101C740014484FF4007101F072F81348202101F068
:101C84006CF840F2266122460248BDE8384002F072
:101C9400D8BB38BD003801406E0500207C07002009
:101CA4007D0700206F0500206F06002071060020CC
:101CB40070060020004800400D0300200C030020A3
:101CC4000E03002000100140000C0140024B0122D1
:101CD40083F80428704700BFB60B0020014B18702E
:101CE400704700BFBC130020014B1878704700BF39
:101CF400BC130020014B5870704700BFBC13002078
:101D0400014B5878704700BFBC130020044B5A881D
:101D140022B99888003018BF01207047012070470D
:101D2400BC130020332828BF3320322903D80029CC
:101D340008BF032100E03221044B01EB810101EBD8
:101D440081010122D88019819A807047BC13002038
:101D5400044B5A882AB919289FBF9A8101225881B5
:101D64005A807047BC130020044B19785878FF2917
:101D740001D1FFF7EDBFFFF7D5BF00BFBC130020B3
:101D840038B50446054D2146284602F09EF92846FA
:101D94006108BDE8384002F0A0B900BF0008004067
:101DA400024B002098805880FFF7EABFBC13002044
:101DB400F8B53D4B988859881A4650B1188908B926
:101DC40098806BE001381881DA88384B33F81200B8
:101DD40064E0002966D0D989002955D19B89344F04
:101DE4003BB95389012157F8233091811B88A7F807
:101DF40068305389918957F823302B4C33F81100FC
:101E0400DFF8ACE0C0F3C31600F01F031082568263
:101E1400938210B9A081608040E000F02005ADB24B
:101E240065B1400648BF5B422383B7F8683001259B
:101E34005E430131E582D6819181F8BD1E2BE58296
:101E440006D1BEF8683001315E43A181E681F8BD58
:101E5400628B012A15D1BEF8682065835643134D61
:101E6400E68105EB4303B3F86800FFF789FFA38A13
:101E740005EB4305B5F86830A383A3890133A38137
:101E8400F8BD01236383F8BDDA8A0139012AD981B7
:101E940008D19A8B188B104480B29883BDE8F8401F
:101EA400FFF76EBFF8BD00BFBC1300205447000805
:101EB40080020020044AC0B21378DBB2591CC9B2B4
:101EC4001344117058707047DA130020014B00223C
:101ED4001A707047DA130020F0B5454BDE789A7813
:101EE400997902EB06265A79587A02EB01211A7A7B
:101EF4001C7B02EB0022D87ADD7B00EB0424987B68
:101F04009F7C00EB05205D7CB6B29E8205EB072525
:101F140036B2402796FBF7F6042706EB860696FBB7
:101F2400F7F606F50076B6F5806FA8BF40F2FF36E7
:101F3400304FB8BF26EAE676B6B289B292B2A4B2FE
:101F440080B2ADB2D9821A835C839883DD831E8408
:101F540009B27E85402691FBF6F1042601EB81014E
:101F640091FBF6F101F50071B1F5806FACBF40F261
:101F7400FF3121EAE17189B2598412B239854021D5
:101F840092FBF1F2042102EB820292FBF1F202F5E0
:101F94000072B2F5806FACBF40F2FF3222EAE27207
:101FA40092B29A8424B2FA8400B2402294FBF2F4EE
:101FB40090FBF2F040F2FF312DB2C4F50074C0F58D
:101FC400007095FBF2F5B4F5806F08BF0C46B0F5D0
:101FD400806F08BF084605F50075A4B280B2ADB2A3
:101FE400DC84BC851885F8855D853D86F0BD00BF21
:101FF400DA1300200F050020014B188C704700BF36
:10200400DA130020014B588C704700BFDA1300200C
:10201400014B988C704700BFDA130020014BD88C19
:10202400704700BFDA130020014B188D704700BFC2
:10203400DA130020014B588D704700BFDA130020DB
:10204400014BB3F914007047DA130020014BB3F9C4
:1020540016007047DA130020014BB3F918007047DB
:10206400DA130020014BB3F91A007047DA13002089
:10207400014BB3F91C007047DA130020014BB3F98C
:102084001E007047DA13002008B53C48022101F015
:102094008FFB0028F9D03A484FF4006100F05FFE4E
:1020A4003648202101F030FB3448022101F080FB46
:1020B4000028F9D03148012101F07AFB0028F9D039
:1020C4002E4801F023FBFFF7F5FE2C48FF2101F019
:1020D4001BFB2A48022101F06BFB0028F9D027489A
:1020E400012101F065FB0028F9D0244801F00EFB22
:1020F400FFF7E0FE22484FF4006100F02EFE1F4877
:10210400022101F055FB0028F9D01D484FF400616D
:1021140000F025FE1948232101F0F6FA17480221A0
:1021240001F046FB0028F9D01448012101F040FBDE
:102134000028F9D0114801F0E9FAFFF7BBFE0F4877
:10214400002101F0E1FA0D48022101F031FB0028E1
:10215400F9D00A48012101F02BFB0028F9D00748E7
:1021640001F0D4FAFFF7A6FE05484FF4006100F031
:10217400F4FD044B00221A7008BD00BF0038004073
:1021840000100140DA13002008B53C48022101F098
:102194000FFB0028F9D03A484FF4806100F0DFFDCE
:1021A4003648202101F0B0FA3448022101F000FB46
:1021B4000028F9D03148012101F0FAFA0028F9D0B9
:1021C4002E4801F0A3FAFFF775FE2C483F2101F0D9
:1021D4009BFA2A48022101F0EBFA0028F9D027489B
:1021E400012101F0E5FA0028F9D0244801F08EFA23
:1021F400FFF760FE22484FF4806100F0AEFD1F48F7
:10220400022101F0D5FA0028F9D01D484FF480616D
:1022140000F0A5FD1948232101F076FA17480221A0
:1022240001F0C6FA0028F9D01448012101F0C0FADF
:102234000028F9D0114801F069FAFFF73BFE0F4876
:10224400102101F061FA0D48022101F0B1FA0028D1
:10225400F9D00A48012101F0ABFA0028F9D0074867
:1022640001F054FAFFF726FE05484FF4806100F0B0
:1022740074FD044B00221A7008BD00BF00380040F2
:1022840000100140DA13002038B50024324802213E
:1022940001F08EFA0028F9D0304D31484FF4006136
:1022A40000F05DFD295D2C4801F02EFA2A48022138
:1022B40001F07EFA0028F9D02748012101F078FACC
:1022C4000028F9D0244801F021FAFFF7F3FD013486
:1022D400032394FBF3F303EB43039C4204D1204810
:1022E4004FF4006100F039FD092CCFD100241A48C5
:1022F400022101F05DFA0028F9D019484FF48061F9
:1023040000F02DFD295D144801F0FEF91248022168
:1023140001F04EFA0028F9D00F48012101F048FAE3
:102324000028F9D00C4801F0F1F9FFF7C3FD01349E
:10233400032394FBF3F303EB43039C4204D10848C7
:102344004FF4806100F009FD092CD0D1FFF7C4FDE2
:10235400044B00221A7038BD00380040EA02002005
:1023640000100140DA13002008B5144B98420FD036
:1023740003F5A053984213D0A3F5C05398421BD140
:102384004FF40070012101F06DF84FF400700EE07D
:102394004FF48060012101F065F84FF4806006E09D
:1023A4004FF40040012101F05DF84FF4004000219A
:1023B400BDE8084001F056B808BD00BF0028014040
:1023C400436810B523F470220B6822F4807213431F
:1023D4000A7943EA022343608A68CB6884681A4313
:1023E400084B234013434A7943EA42038360C36A98
:1023F40023F470020B7C013BDBB242EA0353C36259
:1024040010BD00BFFDF7F1FF0023036003714371AA
:102414008360C360012303747047836811B143F080
:10242400010301E023F0010383607047836811B165
:1024340043F4807301E023F4807383607047C9B26E
:1024440043680AB1194301E023EA0101416070477E
:10245400836843F00803836070478068C0F3C0005A
:102464007047836843F00403836070478068C0F357
:1024740080007047836811B143F4A00301E023F4A2
:10248400A003836070478068C0F38050704743683E
:10249400013923F4604343EA41334360704743689E
:1024A40011B143F4006301E023F400634360704717
:1024B400092970B50CD9A1F10A04C66804EB4404D7
:1024C4000725A54026EA0505A3402B43C36009E080
:1024D400056901EB41060724B44025EA0404B3402E
:1024E40023430361062A0BD8013A446B02EB8202B0
:1024F4001F23934024EA030391401943416370BDB1
:102504000C2A0BD8073A046B02EB82021F23934078
:1025140024EA030391401943016370BD0D3AC46A70
:1025240002EB82021F23934024EA030391401943E0
:10253400C16270BD836811B143F4801301E023F4D8
:10254400801383607047C06C80B27047014B186879
:10255400704700BF4C240140436811B143F48063C9
:1025640001E023F4806343607047436811B143F48E
:10257400805301E023F4805343607047836823F45D
:10258400E043194381607047836811B143F4004309
:1025940001E023F4004383607047836811B143F47E
:1025A400021301E023F40213836070478068C0F3D0
:1025B40040507047092970B50CD9A1F10A04C668C6
:1025C40004EB44040725A54026EA0505A3402B4354
:1025D400C36009E0056901EB41060724B44025EA1C
:1025E4000404B34023430361836B0232C3F30154F5
:1025F400121BD2B202EB82021F24944023EA04038A
:1026040091401943816370BD836B013923F44013F6
:1026140043EA01538363704742507047283140585E
:1026240080B27047436823F4400323F400731943D2
:1026340041607047416282627047436823F01F0320
:10264400194341607047054B9A6810B142F4000287
:1026540001E022F400029A60704700BF00240140A8
:102664000368194214BF012000207047C943016068
:1026740070474368006810EA112004D0C9B21942B7
:1026840014BF0120002070476FEA112101607047D8
:1026940008B5012000F0FEFEBDE80840002000F06F
:1026A400F9BE014B1860704704860D42014B186057
:1026B400704700BF00860D42014B1860704700BF91
:1026C40088860D42044A938D23F460731B041B0C0B
:1026D40018439085704700BF006C0040044A938DF6
:1026E40023F07F031B041B0C18439085704700BF25
:1026F400006C004000F1804000F5D8400180704734
:1027040000F1804000F5D840008880B27047024B49
:102714001868C0B2704700BFA0860D42034A938E6A
:102724009BB243F001039386704700BF006C0040E6
:10273400014B1868C0B27047A4860D42034A938EB9
:102744009BB243F002039386704700BF006C0040C5
:10275400044B1A6802F038021A601A6810431860B1
:10276400704700BF00200240044B1A6822F00802A0
:102774001A601A6810431860704700BF00200240B6
:10278400044B1A6822F010021A601A681043186089
:10279400704700BF00200240034B044A5A6002F114
:1027A40088325A60704700BF002002402301674509
:1027B400024A136943F0800313617047002002400A
:1027C400014BD8698008704700200240014B186A09
:1027D400704700BF00200240024BD869C0F340009C
:1027E400704700BF00200240024B1868C0F340103D
:1027F400704700BF00200240044B1A6909B110431E
:1028040001E022EA00001861704700BF0020024086
:102814000128064B03D1D86900F001007047DB683A
:10282400184214BF01200020704700BF002002405E
:10283400014BD860704700BF00200240084BDA68A3
:10284400D10709D4DA68520708D4DB6813F0100FF3
:1028540014BF0320042070470120704702207047F2
:102864000020024013B50446FFF7E8FF01280FD10A
:1028740064B100230193FF230193019B13B1019BD6
:10288400013BF9E7FFF7DAFF013CEFE7052002E03F
:10289400002C08BF052002B010BD38B5054640F62F
:1028A400FF70FFF7DFFF042814D10B4C40F6FF70D4
:1028B400236943F0020323616561236943F0400304
:1028C4002361FFF7CFFF01281FBF41F6FD73226983
:1028D4001340236138BD00BF0020024010B540F60C
:1028E400FF70FFF7BFFF042813D10A4C40F6FF70B6
:1028F400236943F004032361236943F04003236104
:10290400FFF7B0FF01281FBF41F6FB732269134094
:10291400236110BD0020024010B540F6FF70FFF7A0
:10292400A1FF042829D1154C154B40F6FF70A36074
:1029340003F18833A360236943F0200323612369EF
:1029440043F040032361FFF78DFF04280ED141F6C5
:10295400DF7322690F20134023612369A52243F00A
:1029640010032361074B1A80FFF77CFF01281FBF68
:1029740041F6EF7322691340236110BD0020024029
:102984002301674500F8FF1F70B506460F200D466A
:10299400FFF768FF042817D10C4C0F20236943F07C
:1029A40001032361ABB23380FFF75CFF042804D139
:1029B4002D0C75800F20FFF755FF01281FBF41F62E
:1029C400FE7322691340236170BD00BF00200240E2
:1029D40070B505460F200E46FFF744FF04280FD1BB
:1029E400084C0F20236943F0010323612E80FFF775
:1029F40039FF01281FBF41F6FE732269134023618A
:102A040070BD00BF0020024070B506460F200D4681
:102A1400FFF728FF042815D10B4C0C4BADB2A36073
:102A240003F18833A36023690F2043F0100323616B
:102A34003580FFF717FF01281FBF41F6EF732269A6
:102A44001340236170BD00BF00200240230167458D
:102A540010B504460F20FFF705FF042841D1E443D5
:102A6400204B214AE1B29A6002F188329A601A69D5
:102A7400FF2942F010021A6104D1C4F30723FF2B8B
:102A840008D10FE0194B0F201981FFF7EBFE042842
:102A94001FD1F2E7154A9BB253810F20FFF7E2FEE4
:102AA400042816D1C4F30743FF2B07D00F4A9BB267
:102AB40093810F20FFF7D6FE04280AD1240EFF2CA1
:102AC40001D1042007E0094BA4B2DC810F20FFF7F9
:102AD400C9FE012805D041F6EF73024A11690B4083
:102AE400136110BD002002402301674500F8FF1F59
:102AF40038B5054640F6FF70FFF7B4FE042836D11A
:102B04001B4C1C4B40F6FF70A36003F18833A36099
:102B1400236943F020032361236943F040032361C5
:102B2400FFF7A0FE04281BD141F6DF73226913408E
:102B34002361236943F0100323610F4B0DB100227D
:102B440000E0A5221A8040F6FF70FFF78BFE0128F3
:102B54000DD041F6EF73064A11690B40136138BD7D
:102B640001281FBF41F6DF7322691340236138BD7A
:102B7400002002402301674500F8FF1FF8B5114DFE
:102B8400114B0646AB6003F18833AB600F200F4650
:102B94001446FFF767FE042813D12B6944F0F800AC
:102BA40043F010032B613843084B304358800F2007
:102BB400FFF758FE01281FBF41F6EF732A6913403F
:102BC4002B61F8BD002002402301674500F8FF1F78
:102BD40008B5264B98422FD011D8A3F5006398422C
:102BE4001ED003F58063984220D0A3F50063984279
:102BF4003AD10420012100F035FC04202FE01C4BC5
:102C040098421FD003F58063984221D0A3F5006356
:102C1400984229D14020012100F024FC40201EE0EC
:102C24000820012100F01EFC082018E010200121DA
:102C340000F018FC102012E02020012100F012FC0A
:102C440020200CE08020012100F00CFC802006E014
:102C54004FF48070012100F005FC4FF480700021D6
:102C6400BDE8084000F0FEBB08BD00BF00140140F1
:102C7400001C014008B50120014600F0F3FBBDE84B
:102C840008400120002100F0EDBBCA78F0B5D4065D
:102C940048BF8C780D8802F00F0348BF234315F01A
:102CA400FF0F1DD0016800240126A64006EA05078F
:102CB400B74211D14FEA840E0F2606FA0EF621EA26
:102CC4000601282A03FA0EF641EA060101D14761FA
:102CD40002E0482A08BF07610134082CE4D10160EE
:102CE400FF2D1FD94168002404F108070126BE40C6
:102CF40006EA0507B74211D14FEA840E0F2606FAF9
:102D04000EF621EA0601282A03FA0EF641EA060124
:102D140001D1476102E0482A08BF07610134082C49
:102D2400E2D14160F0BD4FF6FF730380022383704C
:102D34000423C37070478368194214BF0120002024
:102D44007047806880B27047C368194214BF01207D
:102D540000207047C06880B27047016170474161CC
:102D640070470AB10161704741617047C1607047A3
:102D740041F480338361816183618369836970472E
:102D8400054A136823F07F031B041B0C194341EA13
:102D940000101060704700BF00000140014B186034
:102DA400704700BF1C00204230B5134C00F440159E
:102DB400B5F5401F636882B206D1656823F070637D
:102DC40025F0706565600EE0C40255BF440D032410
:102DD4002401C0F303454CBFAC4002FA04F423EAD7
:102DE400040343F0706319B1400D000182401343A2
:102DF400014A536030BD00BF0000014001F00303ED
:102E040001F0FC0101F1804101F5803110B59B0016
:102E14008C680F229A4024EA02028A608A689840E9
:102E240002438A6010BD00BF0B4B6FF070424FF03D
:102E3400FF31C3F88010C3F88420C3F88011C3F8AD
:102E44008421002202F1C001013200200F2A43F83C
:102E54002100F7D1704700BF00E100E0094B4FF0BB
:102E6400206209495A6000229A60D9601A615A6145
:102E74009A61DA611A625A624FF0FF329A62DA6238
:102E84001A63704700ED00E00000FA0540F0BF60EF
:102E9400024B40F40030D860704700BF00ED00E002
:102EA400C27830B5037872B31C4A03F00305D468C2
:102EB4004278E443C4F30224C4F1040102FA01F1A8
:102EC4000F22E240847803F0FC03224003F16043C4
:102ED40003F561430A43D3F80043ED001201FF21D7
:102EE400A940AA4024EA01040A402243C3F800236B
:102EF40003780122590903F01F0302FA03F3084A75
:102F040042F8213030BD5A09012103F01F039940D2
:102F140002F12003024A42F8231030BD00ED00E024
:102F240000E100E00023037043708370C3707047B6
:102F340001F093BB01F093BB01F093BB01F093BB91
:102F4400000101F092BB01F093BB024B5868C0F33F
:102F54000930704700ED00E000F01F0301229A40A1
:102F640004494309403351F823001040831A58425E
:102F74005841704700E100E0014B1860704700BF02
:102F840000EF00E04309012200F01F0002498240E3
:102F9400603341F82320704700E100E0024B586899
:102FA400C0F30900704700BF00ED00E000F01F030C
:102FB40001229A4004494309803351F82300104008
:102FC400831A58425841704700E100E0014B1868E9
:102FD400704700BF00ED00E021F0604121F07F0167
:102FE400014B08439860704700ED00E0014A024B32
:102FF400DA6070470400FA0500ED00E0014A024B74
:10300400DA6070470100FA0500ED00E0044B1A692C
:1030140009B1104301E022EA00001861704700BFC3
:1030240000ED00E000F01F0001228240044B11B1CA
:10303400596A0A4302E0596A21EA02025A62704755
:1030440000ED00E0114B10B5DB68DB43C3F3022352
:10305400C3F10404A140FF2424FA03F31A40C0F38B
:103064000123C0F38110800000F1604000F56D4041
:103074001143DB0082699C4022EA04048461826972
:10308400090199401143816110BD00BF00ED00E0CA
:10309400054AC0F3832001238340506A1840C31AB1
:1030A40058425841704700BF00ED00E0044900F069
:1030B4001F004B680122824013434B60704700BFDE
:1030C40000ED00E0044900F01F004B6801380122C4
:1030D400824013434B60704700ED00E0054AC0F3A3
:1030E400833001238340506A1840C31A5842584120
:1030F400704700BF00ED00E0C0F38143094A0BB9FB
:10310400D06A7047012B0AD1C0F30153906ADA00E8
:10311400D040022B14BF00F00F00C0B27047106BF8
:10312400704700BF00ED00E0034B10F4800F0CBFAC
:10313400586B986B704700BF00ED00E008B54FF086
:103144008050012100F09AF9BDE808404FF080500A
:10315400002100F093B9014B1860704720000E4223
:10316400014B1860704700BF10000E42034A1368F9
:1031740023F0E00318431060704700BF0070004064
:10318400014B1860704700BFA0000E42084A012995
:10319400136823F0030340EA03001060054A136830
:1031A40043F00403136001D101F032BA01F032BAE2
:1031B4000070004010ED00E0074B1A6842F0040272
:1031C4001A601A6842F002021A60044A136843F053
:1031D4000403136001F01CBA0070004010ED00E01D
:1031E400034B5B68184214BF01200020704700BFE6
:1031F40000700040024A136843EA80001060704780
:10320400007000400C4B1A6842F001021A605968C1
:103214000A4A0A405A601A6822F0847222F4803200
:103224001A601A6822F480221A605A6822F4FE0294
:103234005A6000229A607047001002400000FFF8B4
:103244000C4BB0F5803F1A6822F480321A601A6879
:1032540022F480221A6003D0B0F5802F04D0704786
:103264001A6842F4803202E01A6842F4A0221A601A
:10327400704700BF00100240034A136823F0F803AC
:1032840043EAC0001060704700100240014B186010
:10329400704700BF00004242034A536823F47C1382
:1032A400194308435060704700100240014B1860F6
:1032B400704700BF60004242034A536823F003038F
:1032C40018435060704700BF00100240024B58681A
:1032D40000F00C00704700BF00100240034A53681E
:1032E40023F0F00318435060704700BF0010024001
:1032F400034A536823F4E06318435060704700BFE7
:1033040000100240034A536823F4605343EAC000A8
:103314005060704700100240044B1A7809B1104302
:1033240001E022EA00001870704700BF0910024053
:10333400014B1860704700BFD8004242034A5368EB
:1033440023F4404318435060704700BF001002400C
:10335400064B002201281A701A7002D0042802D0E9
:1033640070471870704705221A7070472010024089
:10337400014B1860704700BF80044242024A136A3E
:1033840018431062704700BF00100240014B1860E0
:10339400704700BF3C0442421C4A10B5536803F016
:1033A4000C03042B01D0082B01D0194B0EE05368F9
:1033B4005168C3F38343CC0303F1020302D551687C
:1033C400890301D5134900E011494B430360536855
:1033D4001149C3F30313CC5C0368E34043605468AE
:1033E400C4F302240C5D23FA04F484605468C4F327
:1033F400C2240C5DE340C3605268C2F381320A44C4
:10340400127CB3FBF2F3036110BD00BF0010024055
:1034140000127A0000093D00D4490008044B5A699F
:1034240009B1104301E022EA00005861704700BF6F
:1034340000100240044B9A6909B1104301E022EAEA
:1034440000009861704700BF00100240044BDA6925
:1034540009B1104301E022EA0000D861704700BFBF
:1034640000100240044BDA6809B1104301E022EA7B
:103474000000D860704700BF00100240044B1A6976
:1034840009B1104301E022EA00001861704700BF4F
:1034940000100240014B1860704700BF40044242D4
:1034A400014B1860704700BF4C004242014B18703A
:1034B400704700BF071002404209012A074B01D19F
:1034C4001B6803E0022A0CBF1B6A5B6A00F01F0042
:1034D40023FA00F000F00100704700BF0010024022
:1034E40007B5002301933120FFF7E6FF019B013369
:1034F400019318B9019BB3F5A06FF4D13120FFF704
:10350400DBFF003018BF012003B05DF804FB034A61
:10351400536A43F080735362704700BF0010024047
:10352400034B9B68184214BF01200020704700BF62
:1035340000100240014B1870704700BF0A1002408F
:1035440008B5164B98421BD003F5744398420BD030
:10355400A3F5784398421FD14FF480400121FFF72F
:103564008DFF4FF4804012E04FF480500121FFF7AB
:1035740079FFBDE808404FF480500021FFF772BF87
:103584004FF400400121FFF779FF4FF40040002180
:10359400BDE80840FFF772BF08BD00BF003C004013
:1035A40003884A8810B503F441540B8813438A886E
:1035B4001343CA8813430A8913434A8913438A89E4
:1035C4001343CA89134323439BB20380838B23F49D
:1035D40000631B041B0C83830B8A038210BD838B43
:1035E400F0B523F47B6323F00F031B041B0C8383CC
:1035F400022303840B89868B022B87B005460C4675
:10360400B6B222D08B8801A8002B14BF0227012751
:10361400FFF7C2FEE3882189B3F5007F019B4FF0D9
:103624000A0202FB03F21ABF7B014B430B02B2FBFB
:10363400F3F305330A229BB2B3FBF2F303F0010266
:103644001202C3F34F0392B200E00022991E89B222
:10365400FE2924BF002202231343E28813439BB2B2
:103664002B842388A2881E43638846F40066334370
:103674001343628913439BB2AB8307B0F0BD0023AD
:10368400038043808380C380038143818381C3811A
:103694000723038270470023022203804380838030
:1036A400C380028143817047038819B19BB243F000
:1036B400400303E023F040031B041B0C038070470A
:1036C400838B19B19BB243F4806303E023F48063DA
:1036D4001B041B0C83837047090901238B409BB295
:1036E4001AB1828892B2134303E0828892B222EA2A
:1036F40003038380704783889BB20AB1194301E0B6
:1037040023EA01018180704781817047808980B2FA
:1037140070474FF6FF63994203880BBF23F480730D
:103724009BB21B0443F4807308BF1B0C03807047D7
:10373400838819B19BB243F0040303E023F004032C
:103744001B041B0C83807047038823F400631B0451
:103754001B0C038003889BB21943018070470388C4
:103764009BB243F4805303807047038819B19BB222
:1037740043F4005303E023F400531B041B0C0380A5
:103784007047012914BF008B808A80B27047008A79
:1037940080B270470388B1F5804F15BF23F480438E
:1037A4009BB21B0443F4804318BF1B0C0380704777
:1037B4000389194214BF012000207047C94389B20C
:1037C4000181704710B584880389012201F00F003C
:1037D4009BB202FA00F01840A4B205D009098A404D
:1037E400144214BF0120002010BD01F00F01012379
:1037F4008B40DB439BB20381704700BF044B04281A
:103804001A680CBF42F0040222F004021A607047E6
:1038140010E000E0014B5860704700BF10E000E08A
:103824000128084B03D11A6842F0010204E0023077
:1038340004D11A6822F001021A60704700229A60CB
:10384400704700BF10E000E0044B1A6810B142F06A
:10385400020201E022F002021A60704710E000E068
:10386400014B9868704700BF10E000E0C308022BCA
:10387400044B0CBF1B68DB6823FA00F000F0010066
:10388400704700BF10E000E030B5048C24F0010460
:103894002404240C0484048B058CA4B2ADB224F05B
:1038A400F304224325F0020542EA031345F001051F
:1038B4009AB229430283018430BD30B5048C24F0CC
:1038C40010042404240C0484058B048C25F4407512
:1038D400A4B22D052D0D24F0200444F0100445EA73
:1038E400022242EA033344EA01119BB28CB20383FD
:1038F400048430BD08B52E4B98423AD010D8A3F5B5
:103904000063984225D003F5806398422BD0B0F130
:10391400804F4CD101200146FFF7B0FD01201DE08E
:10392400244B984231D004D8A3F58063984226D022
:1039340008BD214B984204D003F5006398422AD075
:1039440008BD4FF400600121FFF78CFD4FF40060C7
:1039540028E002200121FFF791FD02200021BDE8AB
:103964000840FFF78BBD04200121FFF787FD0420E9
:10397400F4E708200121FFF781FD0820EEE710207D
:103984000121FFF77BFD1020E8E720200121FFF74C
:1039940075FD2020E2E74FF400500121FFF762FD9E
:1039A4004FF400500021BDE80840FFF75BBD08BD9F
:1039B400000C004000140040002C01400388CA8819
:1039C40003F08F03038003889BB213434A88134395
:1039D4009BB203808B8883850B88038501238382B4
:1039E400044B984203D003F50063984201D10B7A4B
:1039F40003867047002C0140038C70B523F001034B
:103A04001B041B0C0384038C8488028B0E8822F015
:103A140070021204120C23F0020516434B880A8923
:103A24002D041343CA882D0C82860F4A2B439042DF
:103A3400A4B29BB203D002F5006290420FD147F6C4
:103A4400FF454A8923F0080313438A8823F00403BB
:103A540025401343CC898A8914432C43A4B284801F
:103A64000683038470BD00BF002C0140038C30B575
:103A740023F010031B041B0C0384038C8588028B26
:103A84000C8822F4E0421204120C42EA042223F0CD
:103A9400200394B21B040A891B0C43EA02134A88CC
:103AA400ADB243EA0213CA889BB20287104A90421D
:103AB40003D002F50062904216D123F080034A89B4
:103AC4009BB243EA02124FF6BF7313408A8843EA5B
:103AD400021347F2FF322A408D899BB242EA8502E3
:103AE400CD8942EA8505ADB285800483038430BD67
:103AF400002C0140038C70B523F480731B041B0C51
:103B04000384038C8488828B0E8822F07002120452
:103B1400120C23F4007316431B040A891B0C43EA9A
:103B240002234A88A4B243EA0223CA889BB282874A
:103B3400104A904203D002F50062904216D123F459
:103B440000634A8944F6FF759BB243EA02224FF6AA
:103B5400FF3325408C89134045EA04158A88CC89B3
:103B640043EA022345EA04149BB2A4B28480868308
:103B7400038470BD002C0140038C30B523F48053C2
:103B84001B041B0C0384038C8488828B0D8822F411
:103B9400E0421204120C23F4005342EA05221B04EF
:103BA4000D891B0C43EA05334D88A4B243EA05335F
:103BB400CD8892B2A0F84050084D9BB2A84203D0E1
:103BC40005F50065A84205D18989C4F30D0444EACA
:103BD4008114A4B284808283038430BD002C01400C
:103BE4004A880B8813438A881343CA8813430A8973
:103BF40013434A8913438A8913439BB2A0F8443080
:103C040070474FF6FF73838000230380C380438093
:103C1400037270470023038043808380C380038141
:103C240043818381C3817047002301220380438041
:103C34008280C38003817047002303804380838094
:103C4400C3800381438183817047038819B19BB288
:103C540043F0010303E023F001039B059B0D038064
:103C64007047B0F8443029B16FEA43436FEA5343D5
:103C74009BB201E0C3F30E03A0F84430704783897C
:103C84009BB20AB1194301E023EA01018181704723
:103C9400818270470A43A0F84820704783899BB209
:103CA4000AB1194301E023EA0101818170470389C4
:103CB40023F007031B041B0C03817047038923F0C3
:103CC40070031B041B0C1943018103899BB243F04D
:103CD40007030381704738B50D46602D114604462D
:103CE4004FF0010202D1FFF7E8FD01E0FFF7CCFD40
:103CF400218921F070010904090C294321812389B8
:103D04009BB243F00703238138BD10B5048942EA0E
:103D14000323E4B223439BB21943018110BD10B5C0
:103D24000446FFF7F2FF238923F077031B041B0CDF
:103D340043F07703238110BD10B50446FFF7E5FF78
:103D440023899BB243F48043238110BD0185828281
:103D54007047038823F070039B059B0D1943018072
:103D64007047038923F070031B041B0C1943018162
:103D7400704770B50689048B058C24F44074ADB289
:103D840024F0030425F0220526F0070624042A4320
:103D94003604240C360C44F4807442EA0313314391
:103DA40044F001049DB201810483058470BD038B3A
:103DB40023F070031B041B0C194301837047038B0E
:103DC40023F4E0431B041B0C43EA012189B2018361
:103DD4007047838B23F070031B041B0C19438183EE
:103DE4007047838B23F4E0431B041B0C43EA01213B
:103DF40089B281837047038819B19BB243F0800371
:103E040003E023F080039B059B0D038070478388A8
:103E140019B19BB243F0040303E023F004031B0431
:103E24001B0C83807047838819B19BB243F008034D
:103E340003E023F008031B041B0C83807047838872
:103E440019B19BB243F0010303E023F001031B0407
:103E54001B0C83807047038B23F008031B041B0C8B
:103E6400194301837047038B23F400631B041B0C69
:103E740043EA012189B201837047838B23F008034D
:103E84001B041B0C194381837047838B23F4006349
:103E94001B041B0C43EA012189B281837047038B05
:103EA40023F004031B041B0C194301837047038B89
:103EB40023F480631B041B0C43EA012189B20183B0
:103EC4007047838B23F004031B041B0C1943818369
:103ED4007047838B23F480631B041B0C43EA01218A
:103EE40089B281837047038B23F080031B041B0C6E
:103EF400194301837047038BC3F30E0343EA012183
:103F040089B201837047838B23F080031B041B0C4D
:103F1400194381837047838BC3F30E0343EA012162
:103F240089B281837047038C23F002031B041B0CAA
:103F3400194301847047038C23F008031B041B0CF2
:103F4400194301847047038C23F020031B041B0CCA
:103F540043EA011189B201847047038C23F0800382
:103F64001B041B0C43EA011189B201847047038CC2
:103F740023F400731B041B0C43EA012189B201845E
:103F84007047038C23F400631B041B0C43EA0121D8
:103F940089B201847047038C23F400531B041B0C67
:103FA40043EA013189B201847047038C10B59CB295
:103FB40001238B4024EA03030384038C8A401343C4
:103FC4009BB2038410BD038C10B59CB204238B40B8
:103FD40024EA03030384038C8A4013439BB20384BF
:103FE40010BD038C10B59CB201238B4024EA03035B
:103FF400038421F0080318303BB94FF68F73490846
:1040040044582340435043580AE048F6FF730439A8
:10401400C1F34E014458120223404350435892B214
:104024001A43425010BD038819B19BB243F00203F6
:1040340003E023F002039B059B0D03807047038874
:1040440019B19BB243F0040303E023F004039B057E
:104054009B0D03807047838819B19BB243F08003A2
:1040640003E023F080031B041B0C83807047038848
:1040740023F008039B059B0D038003889BB219431F
:1040840001807047838823F070031B041B0C83801A
:1040940083889BB2194381807047038923F0070307
:1040A4001B041B0C038103899BB2194301817047D4
:1040B400038923F080031B041B0C038103899BB237
:1040C40019430181704781847047818570478186D7
:1040D40070470187704781877047A0F84010704788
:1040E400038B23F00C031B041B0C0383038B9BB275
:1040F400194301837047038B23F440631B041B0C97
:104104000383038B9BB243EA012189B20183704785
:10411400F8B50C464988A2880029B4F800E00CBF21
:1041240002270027012A05460CBF022601262389FF
:10413400BEF1000F11D1FFF7A7FB2846E188FFF776
:10414400CFFF2846394632462389FFF7B6FB284677
:10415400E188BDE8F840FFF7CEBFFFF7AEFB284685
:10416400E188FFF7C8FF2846394632462389FFF71E
:104174008BFB2846E188BDE8F840FFF7B1BF838B8D
:1041840023F00C031B041B0C8383838B9BB2194306
:1041940081837047838B23F440631B041B0C83834C
:1041A400838B9BB243EA012189B281837047F8B5BE
:1041B4000D460E8804464988AA882B893EB9FFF724
:1041C40063FB2046E988BDE8F840FFF789BF042E69
:1041D40007D1FFF772FB2046E988BDE8F840FFF7F6
:1041E4008ABF082EB5F806E0058C1CD125F480752D
:1041F4002D042D0C0584878B068CBFB2B6B227F034
:10420400F30726F4007647EA031346EA01269FB231
:10421400B6B23A4346F48076828371460684BDE89A
:10422400F840FFF7ACBF25F480552D042D0C058410
:10423400868B078C26F440752D05BFB22D0D45EAFB
:10424400022527F4005242EA013245EA033392B2CE
:104254009BB242F4805283837146BDE8F8400284E5
:10426400FFF798BF0388DBB2038003889BB219432E
:1042740001807047808E80B27047008F80B2704793
:10428400808F80B27047B0F8400080B27047808C55
:1042940080B27047008D80B27047038A194214BF00
:1042A400012000207047C94389B201827047038A04
:1042B400828911EA030092B203D0114214BF012093
:1042C40000207047C94389B20182704708B5224B68
:1042D40098422CD008D8A3F50063984217D003F570
:1042E400806398421BD008BD1C4B984227D003F52D
:1042F400684398422FD14FF480400121FFF7B2F870
:10430400BDE808404FF480400021FFF7ABB84FF4FC
:1043140000300121FFF7B2F84FF4003016E04FF4FB
:1043240080200121FFF7AAF84FF480200EE04FF41B
:1043340000200121FFF7A2F84FF4002006E04FF41B
:1043440080100121FFF79AF84FF480100021BDE896
:104354000840FFF793B808BD004C004000500040EF
:1043640030B50D460446038ACA889BB223F44053F1
:104374001343038282890989AB8892B20B4369890A
:1043840022F4B0520B4322F00C0213439BB28381FC
:10439400838AAA899BB223F4407387B01343838230
:1043A40001A8FEF7F9FF039B049A0E498C4218BF3B
:1043B4001A46192353432A689200B3FBF2F264238A
:1043C400B2FBF3F00001010903FB112212013232A6
:1043D400B2FBF3F303F00F0303439BB2238107B053
:1043E40030BD00BF003801404FF4165303600C2267
:1043F40000238380C38003814281838170470B88BB
:1044040010B54C88028A23438C88C98892B223430E
:104414000B4322F4706213439BB2038210BD00234A
:10442400038043808380C3807047838919B19BB222
:1044340043F4005303E023F400531B041B0C838157
:10444400704710B5C1F34214012301F01F01012C80
:1044540003FA01F301D10C3003E0022C0CBF10303D
:10446400143012B10268134302E0026822EA030323
:10447400036010BD838A9BB20AB1194301E023EAA9
:10448400010181827047038A23F00F031B041B0C74
:104494000382038A9BB2194301827047838923F400
:1044A40000631B041B0C838183899BB219438181A4
:1044B4007047838919B19BB243F0020303E023F0F0
:1044C40002031B041B0C83817047038A23F020031F
:1044D4001B041B0C0382038A9BB21943018270479D
:1044E400038A19B19BB243F4804303E023F480436D
:1044F4001B041B0C03827047C1F3080181807047C1
:104504008088C0F30800704783899BB243F001039D
:1045140083817047038BDBB20383038B9BB243EA33
:10452400012101837047038B03F47F430383038BCF
:104534009BB2194301837047838A19B19BB243F03C
:10454400200303E023F020031B041B0C8382704729
:10455400838A19B19BB243F0100303E023F01003E4
:104564001B041B0C83827047838A19B19BB243F0EE
:10457400080303E023F008031B041B0C8382704729
:10458400838A23F004031B041B0C8382838A9BB25B
:10459400194381827047838A19B19BB243F00203A5
:1045A40003E023F002031B041B0C8382704703887F
:1045B400194214BF012000207047C94389B2018009
:1045C4007047012310B5C1F3421401F01F029C424D
:1045D40003FA02F201D1838903E0022C0CBF038A9F
:1045E400838A9BB21340028892B23BB1090A012329
:1045F4008B40134214BF0120002010BD184610BD8B
:10460400090A01238B40DB439BB20380704700BF40
:1046140030BF704720BF704740BF7047BFF36F8FF4
:104624007047BFF34F8F7047BFF35F8F704701DF51
:104634007047EFF31480704780F31488BFF36F8FD3
:104644007047EFF30980704780F309887047EFF3F0
:104654000880704780F30888704772B6704762B666
:10466400704771B6704761B6704780F31188704720
:10467400EFF31280704740BA704700BA70470000E9
:10468400684620F007018D4601B50C4A0C4B0D49D4
:104694008B4204D252F8041F43F8041BF7E70A4B79
:1046A4000A4A934203D2002243F8042BF8E700F0AD
:1046B4000FF8BDE801408546704700BFE449000893
:1046C40000000020F4020020F4020020081400205E
:1046D40010B5FCF7E3FF0120FDF786F80120FBF796
:1046E4009BFE0020FDF75AF90220FDF757F901203F
:1046F400FDF754F9FDF754FB0023124A995C124A62
:10470400D1540133182BF8D1104B08221A70FBF73F
:1047140011FF032401210720FCF770FC3220FDF770
:1047240030F807200021FCF769FC013C3220FDF73A
:1047340028F814F0FF04EDD12046FDF755F8FCF7F6
:10474400DBF8FEE70E0100200F0500207E080020A4
:1047540083238821A31FDD1D341C9B1A1C19B31746
:104764005F161E15EE13D012C111C410D10FEE0E38
:104774001A0E4D0D8E0CD90B2F0B8F0AF7096809F1
:10478400E0086108E90777070C07A6064706ED0568
:1047940097054705FB04B40470043004F403BB0319
:1047A400860352032303F602CC02A3027E025A02BA
:1047B40038021802FA01DE010000EE02C410D10F23
:1047C400EE0E1A0E4D0D8E0CD90B2F0B8F0AF70916
:1047D4006809E0086108E90777070C07A606470699
:1047E400ED0597054705FB04B40470048403D43035
:1047F4006A18070081001401800081001301800001
:1048040081001201800081001101800081001001EB
:104814008000000008009A008100E80022032102C1
:104824000001000010001501720272027202000100
:104834000000040099018000990180009901800022
:10484400990180000000080081006804210400012F
:10485400000001009A006A042A04740434047E04EB
:104864003E0488044804920452049C045C04A60494
:104874006604B004700400010000040081007404A4
:104884003404880448040001000010009C00520411
:1048940000010000090000040E0280008201820170
:1048A40082010004000008009400A500170214020D
:1048B400A500170214020001000010009A00AA00CB
:1048C400EA008000AA00EA000001000010009A003B
:1048D400AA00EA000001000010001A016A010001A8
:1048E400000010008100E1009A00E100A100000135
:1048F400000014009A006104210400010000140067
:1049040090006C041E0400001000170123026302CF
:10491400230263020001000014001701B0006102C9
:10492400000100002000090121041E020001000012
:1049340010009700B200F2008000B200F200000103
:10494400000014000801240162041E041E02000178
:10495400000014009000A8011E01E801AC00EC0066
:104964000001000017001001800090009000100169
:1049740010019700940097009400100400010000B7
:104984000F0008010D0111019401800011011404AC
:104994001E0100011401000194009400140100019F
:1049A4001401190400020000080010010F010D0198
:1049B4000B010901080106010404000008000801B4
:1049C4000A010C010D010F01110113011401000072
:1049D40000000000010203040102030406070809A1
:0449E40002040608BB
:1049E80002000101010102000200010101010200AF
:1049F800010101010200020001010200020001019F
:104A0800010101010101020002000200020002008E
:104A1800020001020002000200020002000200027D
:104A2800000200020002000200020002000200026E
:104A38000001010200020001020001000100010062
:104A480000FD01FE00FE00FF000300FF000301005F
:104A5800009632FA32FA00FF00030002007F007F5E
:104A680000FF01000100010001000001000700FF34
:104A7800007F00FF007F010001000100010001002C
:104A88000100010001000100010001000100010016
:104A98000100010001000100010001000100010006
:104AA80001000100010001000100010001000100F6
:104AB80001000100010001000100010001000100E6
:104AC80001000100010001000100010001000100D6
:104AD80001000100010001000100010000FF00FFCA
:104AE80000FF00FF01000100010001000100007348
:104AF80013C801000000FF0300503CBEFF0302245E
:104B080024000000000000000C00000040420F00DC
:104B180000E1000040420F0070300A036400000109
:104B280002030405060708090A0B0C0D0E0F1011E5
:104B380012131415161718191A1B1C1D1E1F2021D5
:104B480022232425262728292A2A2B2C2D2E2F30CC
:104B58003132333435363738393A3B3C3D3E3F40C5
:104B68004142434445464748494A4B4C4D4E4F50B5
:104B78005152535455565758595A5B5C5D5E5F60A5
:104B88006162636465666768696A6B6C6D6E6F7095
:104B98007172737475767778797A7B7C7D7E7F7F86
:104BA800808182838485868788898A8B8C8D8E8F85
:104BB800909192939495969798999A9B9C9D9E9F75
:104BC800A0A1A2A3A4A5A6A7A8A9AAABACADAEAF65
:104BD800B0B1B2B3B4B5B6B7B8B9BABBBCBDBEBF55
:104BE800C0C1C2C3C4C5C6C7C8C9CACBCCCDCECF45
:104BF800D0D1D2D3D3D4D5D6D7D8D9DADBDCDDDE41
:104C0800DFE0E1E2E3E4E5E6E7E8E9EAEBECEDEE34
:104C1800EFF0F1F2F3F4F5F6F7F8F9FAFBFC00001F
:104C28000A0000000B0000000C0000000D0000004E
:104C38000000000001000000020000000300000066
:104C48000400000005000000060000000700000046
:104C58000E0000000F00000008000000090000001E
:104C6800C0490008AC4900088449000868490008A0
:104C780056490008464900083449000828490008F0
:104C88001C4900080C49000802490008F6480008B9
:104C9800E6480008DC480008D0480008BE4800087C
:104CA800AA480008984800088E4800087E4800086E
:104CB800564800084A4800083648000828480008AE
:104CC80018480008F64700080100E8FFFFEAFFFF60
:044CD800ECFFFF00EE
:0400000508000134BA
:00000001FF
